{
  "contractName": "Token",
  "abi": [
    {
      "inputs": [
        {
          "internalType": "string",
          "name": "name",
          "type": "string"
        },
        {
          "internalType": "string",
          "name": "symbol",
          "type": "string"
        }
      ],
      "stateMutability": "nonpayable",
      "type": "constructor"
    },
    {
      "anonymous": false,
      "inputs": [
        {
          "indexed": true,
          "internalType": "address",
          "name": "owner",
          "type": "address"
        },
        {
          "indexed": true,
          "internalType": "address",
          "name": "approved",
          "type": "address"
        },
        {
          "indexed": true,
          "internalType": "uint256",
          "name": "tokenId",
          "type": "uint256"
        }
      ],
      "name": "Approval",
      "type": "event"
    },
    {
      "anonymous": false,
      "inputs": [
        {
          "indexed": true,
          "internalType": "address",
          "name": "owner",
          "type": "address"
        },
        {
          "indexed": true,
          "internalType": "address",
          "name": "operator",
          "type": "address"
        },
        {
          "indexed": false,
          "internalType": "bool",
          "name": "approved",
          "type": "bool"
        }
      ],
      "name": "ApprovalForAll",
      "type": "event"
    },
    {
      "anonymous": false,
      "inputs": [
        {
          "indexed": true,
          "internalType": "address",
          "name": "previousOwner",
          "type": "address"
        },
        {
          "indexed": true,
          "internalType": "address",
          "name": "newOwner",
          "type": "address"
        }
      ],
      "name": "OwnershipTransferred",
      "type": "event"
    },
    {
      "anonymous": false,
      "inputs": [
        {
          "indexed": true,
          "internalType": "address",
          "name": "from",
          "type": "address"
        },
        {
          "indexed": true,
          "internalType": "address",
          "name": "to",
          "type": "address"
        },
        {
          "indexed": true,
          "internalType": "uint256",
          "name": "tokenId",
          "type": "uint256"
        }
      ],
      "name": "Transfer",
      "type": "event"
    },
    {
      "inputs": [
        {
          "internalType": "address",
          "name": "to",
          "type": "address"
        },
        {
          "internalType": "uint256",
          "name": "tokenId",
          "type": "uint256"
        }
      ],
      "name": "approve",
      "outputs": [],
      "stateMutability": "nonpayable",
      "type": "function"
    },
    {
      "inputs": [
        {
          "internalType": "address",
          "name": "owner",
          "type": "address"
        }
      ],
      "name": "balanceOf",
      "outputs": [
        {
          "internalType": "uint256",
          "name": "",
          "type": "uint256"
        }
      ],
      "stateMutability": "view",
      "type": "function",
      "constant": true
    },
    {
      "inputs": [
        {
          "internalType": "uint256",
          "name": "tokenId",
          "type": "uint256"
        }
      ],
      "name": "getApproved",
      "outputs": [
        {
          "internalType": "address",
          "name": "",
          "type": "address"
        }
      ],
      "stateMutability": "view",
      "type": "function",
      "constant": true
    },
    {
      "inputs": [
        {
          "internalType": "address",
          "name": "owner",
          "type": "address"
        },
        {
          "internalType": "address",
          "name": "operator",
          "type": "address"
        }
      ],
      "name": "isApprovedForAll",
      "outputs": [
        {
          "internalType": "bool",
          "name": "",
          "type": "bool"
        }
      ],
      "stateMutability": "view",
      "type": "function",
      "constant": true
    },
    {
      "inputs": [],
      "name": "name",
      "outputs": [
        {
          "internalType": "string",
          "name": "",
          "type": "string"
        }
      ],
      "stateMutability": "view",
      "type": "function",
      "constant": true
    },
    {
      "inputs": [],
      "name": "owner",
      "outputs": [
        {
          "internalType": "address",
          "name": "",
          "type": "address"
        }
      ],
      "stateMutability": "view",
      "type": "function",
      "constant": true
    },
    {
      "inputs": [
        {
          "internalType": "uint256",
          "name": "tokenId",
          "type": "uint256"
        }
      ],
      "name": "ownerOf",
      "outputs": [
        {
          "internalType": "address",
          "name": "",
          "type": "address"
        }
      ],
      "stateMutability": "view",
      "type": "function",
      "constant": true
    },
    {
      "inputs": [],
      "name": "renounceOwnership",
      "outputs": [],
      "stateMutability": "nonpayable",
      "type": "function"
    },
    {
      "inputs": [
        {
          "internalType": "address",
          "name": "from",
          "type": "address"
        },
        {
          "internalType": "address",
          "name": "to",
          "type": "address"
        },
        {
          "internalType": "uint256",
          "name": "tokenId",
          "type": "uint256"
        }
      ],
      "name": "safeTransferFrom",
      "outputs": [],
      "stateMutability": "nonpayable",
      "type": "function"
    },
    {
      "inputs": [
        {
          "internalType": "address",
          "name": "from",
          "type": "address"
        },
        {
          "internalType": "address",
          "name": "to",
          "type": "address"
        },
        {
          "internalType": "uint256",
          "name": "tokenId",
          "type": "uint256"
        },
        {
          "internalType": "bytes",
          "name": "_data",
          "type": "bytes"
        }
      ],
      "name": "safeTransferFrom",
      "outputs": [],
      "stateMutability": "nonpayable",
      "type": "function"
    },
    {
      "inputs": [
        {
          "internalType": "address",
          "name": "operator",
          "type": "address"
        },
        {
          "internalType": "bool",
          "name": "approved",
          "type": "bool"
        }
      ],
      "name": "setApprovalForAll",
      "outputs": [],
      "stateMutability": "nonpayable",
      "type": "function"
    },
    {
      "inputs": [
        {
          "internalType": "bytes4",
          "name": "interfaceId",
          "type": "bytes4"
        }
      ],
      "name": "supportsInterface",
      "outputs": [
        {
          "internalType": "bool",
          "name": "",
          "type": "bool"
        }
      ],
      "stateMutability": "view",
      "type": "function",
      "constant": true
    },
    {
      "inputs": [],
      "name": "symbol",
      "outputs": [
        {
          "internalType": "string",
          "name": "",
          "type": "string"
        }
      ],
      "stateMutability": "view",
      "type": "function",
      "constant": true
    },
    {
      "inputs": [
        {
          "internalType": "uint256",
          "name": "tokenId",
          "type": "uint256"
        }
      ],
      "name": "tokenURI",
      "outputs": [
        {
          "internalType": "string",
          "name": "",
          "type": "string"
        }
      ],
      "stateMutability": "view",
      "type": "function",
      "constant": true
    },
    {
      "inputs": [
        {
          "internalType": "address",
          "name": "from",
          "type": "address"
        },
        {
          "internalType": "address",
          "name": "to",
          "type": "address"
        },
        {
          "internalType": "uint256",
          "name": "tokenId",
          "type": "uint256"
        }
      ],
      "name": "transferFrom",
      "outputs": [],
      "stateMutability": "nonpayable",
      "type": "function"
    },
    {
      "inputs": [
        {
          "internalType": "address",
          "name": "newOwner",
          "type": "address"
        }
      ],
      "name": "transferOwnership",
      "outputs": [],
      "stateMutability": "nonpayable",
      "type": "function"
    },
    {
      "inputs": [
        {
          "internalType": "uint256",
          "name": "tokenId",
          "type": "uint256"
        }
      ],
      "name": "getTokenDetails",
      "outputs": [
        {
          "components": [
            {
              "internalType": "uint8",
              "name": "damage",
              "type": "uint8"
            },
            {
              "internalType": "uint8",
              "name": "magic",
              "type": "uint8"
            },
            {
              "internalType": "uint256",
              "name": "lastMeal",
              "type": "uint256"
            },
            {
              "internalType": "uint256",
              "name": "endurance",
              "type": "uint256"
            }
          ],
          "internalType": "struct Token.Pet",
          "name": "",
          "type": "tuple"
        }
      ],
      "stateMutability": "view",
      "type": "function",
      "constant": true
    },
    {
      "inputs": [
        {
          "internalType": "uint8",
          "name": "damage",
          "type": "uint8"
        },
        {
          "internalType": "uint8",
          "name": "magic",
          "type": "uint8"
        },
        {
          "internalType": "uint256",
          "name": "endurance",
          "type": "uint256"
        }
      ],
      "name": "mint",
      "outputs": [],
      "stateMutability": "nonpayable",
      "type": "function"
    },
    {
      "inputs": [
        {
          "internalType": "uint256",
          "name": "tokenId",
          "type": "uint256"
        }
      ],
      "name": "feed",
      "outputs": [],
      "stateMutability": "nonpayable",
      "type": "function"
    }
  ],
  "bytecode": "0x608060405260006007553480156200001657600080fd5b506040516200337d3803806200337d83398181016040528101906200003c919062000296565b818181600090805190602001906200005692919062000168565b5080600190805190602001906200006f92919062000168565b50505062000092620000866200009a60201b60201c565b620000a260201b60201c565b50506200049f565b600033905090565b6000600660009054906101000a900473ffffffffffffffffffffffffffffffffffffffff16905081600660006101000a81548173ffffffffffffffffffffffffffffffffffffffff021916908373ffffffffffffffffffffffffffffffffffffffff1602179055508173ffffffffffffffffffffffffffffffffffffffff168173ffffffffffffffffffffffffffffffffffffffff167f8be0079c531659141344cd1fd0a4f28419497f9722a3daafe3b4186f6b6457e060405160405180910390a35050565b8280546200017690620003b0565b90600052602060002090601f0160209004810192826200019a5760008555620001e6565b82601f10620001b557805160ff1916838001178555620001e6565b82800160010185558215620001e6579182015b82811115620001e5578251825591602001919060010190620001c8565b5b509050620001f59190620001f9565b5090565b5b8082111562000214576000816000905550600101620001fa565b5090565b60006200022f620002298462000344565b6200031b565b9050828152602081018484840111156200024e576200024d6200047f565b5b6200025b8482856200037a565b509392505050565b600082601f8301126200027b576200027a6200047a565b5b81516200028d84826020860162000218565b91505092915050565b60008060408385031215620002b057620002af62000489565b5b600083015167ffffffffffffffff811115620002d157620002d062000484565b5b620002df8582860162000263565b925050602083015167ffffffffffffffff81111562000303576200030262000484565b5b620003118582860162000263565b9150509250929050565b6000620003276200033a565b9050620003358282620003e6565b919050565b6000604051905090565b600067ffffffffffffffff8211156200036257620003616200044b565b5b6200036d826200048e565b9050602081019050919050565b60005b838110156200039a5780820151818401526020810190506200037d565b83811115620003aa576000848401525b50505050565b60006002820490506001821680620003c957607f821691505b60208210811415620003e057620003df6200041c565b5b50919050565b620003f1826200048e565b810181811067ffffffffffffffff821117156200041357620004126200044b565b5b80604052505050565b7f4e487b7100000000000000000000000000000000000000000000000000000000600052602260045260246000fd5b7f4e487b7100000000000000000000000000000000000000000000000000000000600052604160045260246000fd5b600080fd5b600080fd5b600080fd5b600080fd5b6000601f19601f8301169050919050565b612ece80620004af6000396000f3fe608060405234801561001057600080fd5b50600436106101215760003560e01c80638da5cb5b116100ad578063c87b56dd11610071578063c87b56dd14610306578063e985e9c514610336578063eb22ed3214610366578063f2fde38b14610382578063f59dfdfb1461039e57610121565b80638da5cb5b1461026257806395d89b4114610280578063a22cb4651461029e578063b88d4fde146102ba578063c1e03728146102d657610121565b806323b872dd116100f457806323b872dd146101c057806342842e0e146101dc5780636352211e146101f857806370a0823114610228578063715018a61461025857610121565b806301ffc9a71461012657806306fdde0314610156578063081812fc14610174578063095ea7b3146101a4575b600080fd5b610140600480360381019061013b9190611e7e565b6103ba565b60405161014d9190612356565b60405180910390f35b61015e61049c565b60405161016b9190612371565b60405180910390f35b61018e60048036038101906101899190611ed8565b61052e565b60405161019b91906122ef565b60405180910390f35b6101be60048036038101906101b99190611e3e565b6105b3565b005b6101da60048036038101906101d59190611d28565b6106cb565b005b6101f660048036038101906101f19190611d28565b61072b565b005b610212600480360381019061020d9190611ed8565b61074b565b60405161021f91906122ef565b60405180910390f35b610242600480360381019061023d9190611cbb565b6107fd565b60405161024f91906125ae565b60405180910390f35b6102606108b5565b005b61026a61093d565b60405161027791906122ef565b60405180910390f35b610288610967565b6040516102959190612371565b60405180910390f35b6102b860048036038101906102b39190611dfe565b6109f9565b005b6102d460048036038101906102cf9190611d7b565b610b7a565b005b6102f060048036038101906102eb9190611ed8565b610bdc565b6040516102fd9190612593565b60405180910390f35b610320600480360381019061031b9190611ed8565b610c57565b60405161032d9190612371565b60405180910390f35b610350600480360381019061034b9190611ce8565b610cfe565b60405161035d9190612356565b60405180910390f35b610380600480360381019061037b9190611f05565b610d92565b005b61039c60048036038101906103979190611cbb565b610ecc565b005b6103b860048036038101906103b39190611ed8565b610fc4565b005b60007f80ac58cd000000000000000000000000000000000000000000000000000000007bffffffffffffffffffffffffffffffffffffffffffffffffffffffff1916827bffffffffffffffffffffffffffffffffffffffffffffffffffffffff1916148061048557507f5b5e139f000000000000000000000000000000000000000000000000000000007bffffffffffffffffffffffffffffffffffffffffffffffffffffffff1916827bffffffffffffffffffffffffffffffffffffffffffffffffffffffff1916145b80610495575061049482611007565b5b9050919050565b6060600080546104ab906127e0565b80601f01602080910402602001604051908101604052809291908181526020018280546104d7906127e0565b80156105245780601f106104f957610100808354040283529160200191610524565b820191906000526020600020905b81548152906001019060200180831161050757829003601f168201915b5050505050905090565b600061053982611071565b610578576040517f08c379a000000000000000000000000000000000000000000000000000000000815260040161056f906124d3565b60405180910390fd5b6004600083815260200190815260200160002060009054906101000a900473ffffffffffffffffffffffffffffffffffffffff169050919050565b60006105be8261074b565b90508073ffffffffffffffffffffffffffffffffffffffff168373ffffffffffffffffffffffffffffffffffffffff16141561062f576040517f08c379a000000000000000000000000000000000000000000000000000000000815260040161062690612553565b60405180910390fd5b8073ffffffffffffffffffffffffffffffffffffffff1661064e6110dd565b73ffffffffffffffffffffffffffffffffffffffff16148061067d575061067c816106776110dd565b610cfe565b5b6106bc576040517f08c379a00000000000000000000000000000000000000000000000000000000081526004016106b390612453565b60405180910390fd5b6106c683836110e5565b505050565b6106dc6106d66110dd565b8261119e565b61071b576040517f08c379a000000000000000000000000000000000000000000000000000000000815260040161071290612573565b60405180910390fd5b61072683838361127c565b505050565b61074683838360405180602001604052806000815250610b7a565b505050565b6000806002600084815260200190815260200160002060009054906101000a900473ffffffffffffffffffffffffffffffffffffffff169050600073ffffffffffffffffffffffffffffffffffffffff168173ffffffffffffffffffffffffffffffffffffffff1614156107f4576040517f08c379a00000000000000000000000000000000000000000000000000000000081526004016107eb90612493565b60405180910390fd5b80915050919050565b60008073ffffffffffffffffffffffffffffffffffffffff168273ffffffffffffffffffffffffffffffffffffffff16141561086e576040517f08c379a000000000000000000000000000000000000000000000000000000000815260040161086590612473565b60405180910390fd5b600360008373ffffffffffffffffffffffffffffffffffffffff1673ffffffffffffffffffffffffffffffffffffffff168152602001908152602001600020549050919050565b6108bd6110dd565b73ffffffffffffffffffffffffffffffffffffffff166108db61093d565b73ffffffffffffffffffffffffffffffffffffffff1614610931576040517f08c379a0000000000000000000000000000000000000000000000000000000008152600401610928906124f3565b60405180910390fd5b61093b60006114d8565b565b6000600660009054906101000a900473ffffffffffffffffffffffffffffffffffffffff16905090565b606060018054610976906127e0565b80601f01602080910402602001604051908101604052809291908181526020018280546109a2906127e0565b80156109ef5780601f106109c4576101008083540402835291602001916109ef565b820191906000526020600020905b8154815290600101906020018083116109d257829003601f168201915b5050505050905090565b610a016110dd565b73ffffffffffffffffffffffffffffffffffffffff168273ffffffffffffffffffffffffffffffffffffffff161415610a6f576040517f08c379a0000000000000000000000000000000000000000000000000000000008152600401610a6690612413565b60405180910390fd5b8060056000610a7c6110dd565b73ffffffffffffffffffffffffffffffffffffffff1673ffffffffffffffffffffffffffffffffffffffff16815260200190815260200160002060008473ffffffffffffffffffffffffffffffffffffffff1673ffffffffffffffffffffffffffffffffffffffff16815260200190815260200160002060006101000a81548160ff0219169083151502179055508173ffffffffffffffffffffffffffffffffffffffff16610b296110dd565b73ffffffffffffffffffffffffffffffffffffffff167f17307eab39ab6107e8899845ad3d59bd9653f200f220920489ca2b5937696c3183604051610b6e9190612356565b60405180910390a35050565b610b8b610b856110dd565b8361119e565b610bca576040517f08c379a0000000000000000000000000000000000000000000000000000000008152600401610bc190612573565b60405180910390fd5b610bd68484848461159e565b50505050565b610be4611b9f565b600860008381526020019081526020016000206040518060800160405290816000820160009054906101000a900460ff1660ff1660ff1681526020016000820160019054906101000a900460ff1660ff1660ff168152602001600182015481526020016002820154815250509050919050565b6060610c6282611071565b610ca1576040517f08c379a0000000000000000000000000000000000000000000000000000000008152600401610c9890612533565b60405180910390fd5b6000610cab6115fa565b90506000815111610ccb5760405180602001604052806000815250610cf6565b80610cd584611611565b604051602001610ce69291906122cb565b6040516020818303038152906040525b915050919050565b6000600560008473ffffffffffffffffffffffffffffffffffffffff1673ffffffffffffffffffffffffffffffffffffffff16815260200190815260200160002060008373ffffffffffffffffffffffffffffffffffffffff1673ffffffffffffffffffffffffffffffffffffffff16815260200190815260200160002060009054906101000a900460ff16905092915050565b610d9a6110dd565b73ffffffffffffffffffffffffffffffffffffffff16610db861093d565b73ffffffffffffffffffffffffffffffffffffffff1614610e0e576040517f08c379a0000000000000000000000000000000000000000000000000000000008152600401610e05906124f3565b60405180910390fd5b60405180608001604052808460ff1681526020018360ff1681526020014281526020018281525060086000600754815260200190815260200160002060008201518160000160006101000a81548160ff021916908360ff16021790555060208201518160000160016101000a81548160ff021916908360ff1602179055506040820151816001015560608201518160020155905050610eaf33600754611772565b60076000815480929190610ec290612843565b9190505550505050565b610ed46110dd565b73ffffffffffffffffffffffffffffffffffffffff16610ef261093d565b73ffffffffffffffffffffffffffffffffffffffff1614610f48576040517f08c379a0000000000000000000000000000000000000000000000000000000008152600401610f3f906124f3565b60405180910390fd5b600073ffffffffffffffffffffffffffffffffffffffff168173ffffffffffffffffffffffffffffffffffffffff161415610fb8576040517f08c379a0000000000000000000000000000000000000000000000000000000008152600401610faf906123b3565b60405180910390fd5b610fc1816114d8565b50565b60006008600083815260200190815260200160002090504281600201548260010154610ff09190612662565b11610ffa57600080fd5b4281600101819055505050565b60007f01ffc9a7000000000000000000000000000000000000000000000000000000007bffffffffffffffffffffffffffffffffffffffffffffffffffffffff1916827bffffffffffffffffffffffffffffffffffffffffffffffffffffffff1916149050919050565b60008073ffffffffffffffffffffffffffffffffffffffff166002600084815260200190815260200160002060009054906101000a900473ffffffffffffffffffffffffffffffffffffffff1673ffffffffffffffffffffffffffffffffffffffff1614159050919050565b600033905090565b816004600083815260200190815260200160002060006101000a81548173ffffffffffffffffffffffffffffffffffffffff021916908373ffffffffffffffffffffffffffffffffffffffff160217905550808273ffffffffffffffffffffffffffffffffffffffff166111588361074b565b73ffffffffffffffffffffffffffffffffffffffff167f8c5be1e5ebec7d5bd14f71427d1e84f3dd0314c0f7b2291e5b200ac8c7c3b92560405160405180910390a45050565b60006111a982611071565b6111e8576040517f08c379a00000000000000000000000000000000000000000000000000000000081526004016111df90612433565b60405180910390fd5b60006111f38361074b565b90508073ffffffffffffffffffffffffffffffffffffffff168473ffffffffffffffffffffffffffffffffffffffff16148061126257508373ffffffffffffffffffffffffffffffffffffffff1661124a8461052e565b73ffffffffffffffffffffffffffffffffffffffff16145b8061127357506112728185610cfe565b5b91505092915050565b8273ffffffffffffffffffffffffffffffffffffffff1661129c8261074b565b73ffffffffffffffffffffffffffffffffffffffff16146112f2576040517f08c379a00000000000000000000000000000000000000000000000000000000081526004016112e990612513565b60405180910390fd5b600073ffffffffffffffffffffffffffffffffffffffff168273ffffffffffffffffffffffffffffffffffffffff161415611362576040517f08c379a0000000000000000000000000000000000000000000000000000000008152600401611359906123f3565b60405180910390fd5b61136d838383611790565b6113786000826110e5565b6001600360008573ffffffffffffffffffffffffffffffffffffffff1673ffffffffffffffffffffffffffffffffffffffff16815260200190815260200160002060008282546113c891906126e9565b925050819055506001600360008473ffffffffffffffffffffffffffffffffffffffff1673ffffffffffffffffffffffffffffffffffffffff168152602001908152602001600020600082825461141f9190612662565b92505081905550816002600083815260200190815260200160002060006101000a81548173ffffffffffffffffffffffffffffffffffffffff021916908373ffffffffffffffffffffffffffffffffffffffff160217905550808273ffffffffffffffffffffffffffffffffffffffff168473ffffffffffffffffffffffffffffffffffffffff167fddf252ad1be2c89b69c2b068fc378daa952ba7f163c4a11628f55a4df523b3ef60405160405180910390a4505050565b6000600660009054906101000a900473ffffffffffffffffffffffffffffffffffffffff16905081600660006101000a81548173ffffffffffffffffffffffffffffffffffffffff021916908373ffffffffffffffffffffffffffffffffffffffff1602179055508173ffffffffffffffffffffffffffffffffffffffff168173ffffffffffffffffffffffffffffffffffffffff167f8be0079c531659141344cd1fd0a4f28419497f9722a3daafe3b4186f6b6457e060405160405180910390a35050565b6115a984848461127c565b6115b5848484846117cc565b6115f4576040517f08c379a00000000000000000000000000000000000000000000000000000000081526004016115eb90612393565b60405180910390fd5b50505050565b606060405180602001604052806000815250905090565b60606000821415611659576040518060400160405280600181526020017f3000000000000000000000000000000000000000000000000000000000000000815250905061176d565b600082905060005b6000821461168b57808061167490612843565b915050600a8261168491906126b8565b9150611661565b60008167ffffffffffffffff8111156116a7576116a6612979565b5b6040519080825280601f01601f1916602001820160405280156116d95781602001600182028036833780820191505090505b5090505b60008514611766576001826116f291906126e9565b9150600a85611701919061288c565b603061170d9190612662565b60f81b8183815181106117235761172261294a565b5b60200101907effffffffffffffffffffffffffffffffffffffffffffffffffffffffffffff1916908160001a905350600a8561175f91906126b8565b94506116dd565b8093505050505b919050565b61178c828260405180602001604052806000815250611963565b5050565b600060086000838152602001908152602001600020905042816002015482600101546117bc9190612662565b116117c657600080fd5b50505050565b60006117ed8473ffffffffffffffffffffffffffffffffffffffff166119be565b15611956578373ffffffffffffffffffffffffffffffffffffffff1663150b7a026118166110dd565b8786866040518563ffffffff1660e01b8152600401611838949392919061230a565b602060405180830381600087803b15801561185257600080fd5b505af192505050801561188357506040513d601f19601f820116820180604052508101906118809190611eab565b60015b611906573d80600081146118b3576040519150601f19603f3d011682016040523d82523d6000602084013e6118b8565b606091505b506000815114156118fe576040517f08c379a00000000000000000000000000000000000000000000000000000000081526004016118f590612393565b60405180910390fd5b805181602001fd5b63150b7a0260e01b7bffffffffffffffffffffffffffffffffffffffffffffffffffffffff1916817bffffffffffffffffffffffffffffffffffffffffffffffffffffffff19161491505061195b565b600190505b949350505050565b61196d83836119d1565b61197a60008484846117cc565b6119b9576040517f08c379a00000000000000000000000000000000000000000000000000000000081526004016119b090612393565b60405180910390fd5b505050565b600080823b905060008111915050919050565b600073ffffffffffffffffffffffffffffffffffffffff168273ffffffffffffffffffffffffffffffffffffffff161415611a41576040517f08c379a0000000000000000000000000000000000000000000000000000000008152600401611a38906124b3565b60405180910390fd5b611a4a81611071565b15611a8a576040517f08c379a0000000000000000000000000000000000000000000000000000000008152600401611a81906123d3565b60405180910390fd5b611a9660008383611790565b6001600360008473ffffffffffffffffffffffffffffffffffffffff1673ffffffffffffffffffffffffffffffffffffffff1681526020019081526020016000206000828254611ae69190612662565b92505081905550816002600083815260200190815260200160002060006101000a81548173ffffffffffffffffffffffffffffffffffffffff021916908373ffffffffffffffffffffffffffffffffffffffff160217905550808273ffffffffffffffffffffffffffffffffffffffff16600073ffffffffffffffffffffffffffffffffffffffff167fddf252ad1be2c89b69c2b068fc378daa952ba7f163c4a11628f55a4df523b3ef60405160405180910390a45050565b6040518060800160405280600060ff168152602001600060ff16815260200160008152602001600081525090565b6000611be0611bdb846125ee565b6125c9565b905082815260208101848484011115611bfc57611bfb6129ad565b5b611c0784828561279e565b509392505050565b600081359050611c1e81612e25565b92915050565b600081359050611c3381612e3c565b92915050565b600081359050611c4881612e53565b92915050565b600081519050611c5d81612e53565b92915050565b600082601f830112611c7857611c776129a8565b5b8135611c88848260208601611bcd565b91505092915050565b600081359050611ca081612e6a565b92915050565b600081359050611cb581612e81565b92915050565b600060208284031215611cd157611cd06129b7565b5b6000611cdf84828501611c0f565b91505092915050565b60008060408385031215611cff57611cfe6129b7565b5b6000611d0d85828601611c0f565b9250506020611d1e85828601611c0f565b9150509250929050565b600080600060608486031215611d4157611d406129b7565b5b6000611d4f86828701611c0f565b9350506020611d6086828701611c0f565b9250506040611d7186828701611c91565b9150509250925092565b60008060008060808587031215611d9557611d946129b7565b5b6000611da387828801611c0f565b9450506020611db487828801611c0f565b9350506040611dc587828801611c91565b925050606085013567ffffffffffffffff811115611de657611de56129b2565b5b611df287828801611c63565b91505092959194509250565b60008060408385031215611e1557611e146129b7565b5b6000611e2385828601611c0f565b9250506020611e3485828601611c24565b9150509250929050565b60008060408385031215611e5557611e546129b7565b5b6000611e6385828601611c0f565b9250506020611e7485828601611c91565b9150509250929050565b600060208284031215611e9457611e936129b7565b5b6000611ea284828501611c39565b91505092915050565b600060208284031215611ec157611ec06129b7565b5b6000611ecf84828501611c4e565b91505092915050565b600060208284031215611eee57611eed6129b7565b5b6000611efc84828501611c91565b91505092915050565b600080600060608486031215611f1e57611f1d6129b7565b5b6000611f2c86828701611ca6565b9350506020611f3d86828701611ca6565b9250506040611f4e86828701611c91565b9150509250925092565b611f618161271d565b82525050565b611f708161272f565b82525050565b6000611f818261261f565b611f8b8185612635565b9350611f9b8185602086016127ad565b611fa4816129bc565b840191505092915050565b6000611fba8261262a565b611fc48185612646565b9350611fd48185602086016127ad565b611fdd816129bc565b840191505092915050565b6000611ff38261262a565b611ffd8185612657565b935061200d8185602086016127ad565b80840191505092915050565b6000612026603283612646565b9150612031826129cd565b604082019050919050565b6000612049602683612646565b915061205482612a1c565b604082019050919050565b600061206c601c83612646565b915061207782612a6b565b602082019050919050565b600061208f602483612646565b915061209a82612a94565b604082019050919050565b60006120b2601983612646565b91506120bd82612ae3565b602082019050919050565b60006120d5602c83612646565b91506120e082612b0c565b604082019050919050565b60006120f8603883612646565b915061210382612b5b565b604082019050919050565b600061211b602a83612646565b915061212682612baa565b604082019050919050565b600061213e602983612646565b915061214982612bf9565b604082019050919050565b6000612161602083612646565b915061216c82612c48565b602082019050919050565b6000612184602c83612646565b915061218f82612c71565b604082019050919050565b60006121a7602083612646565b91506121b282612cc0565b602082019050919050565b60006121ca602983612646565b91506121d582612ce9565b604082019050919050565b60006121ed602f83612646565b91506121f882612d38565b604082019050919050565b6000612210602183612646565b915061221b82612d87565b604082019050919050565b6000612233603183612646565b915061223e82612dd6565b604082019050919050565b60808201600082015161225f60008501826122bc565b50602082015161227260208501826122bc565b506040820151612285604085018261229e565b506060820151612298606085018261229e565b50505050565b6122a781612787565b82525050565b6122b681612787565b82525050565b6122c581612791565b82525050565b60006122d78285611fe8565b91506122e38284611fe8565b91508190509392505050565b60006020820190506123046000830184611f58565b92915050565b600060808201905061231f6000830187611f58565b61232c6020830186611f58565b61233960408301856122ad565b818103606083015261234b8184611f76565b905095945050505050565b600060208201905061236b6000830184611f67565b92915050565b6000602082019050818103600083015261238b8184611faf565b905092915050565b600060208201905081810360008301526123ac81612019565b9050919050565b600060208201905081810360008301526123cc8161203c565b9050919050565b600060208201905081810360008301526123ec8161205f565b9050919050565b6000602082019050818103600083015261240c81612082565b9050919050565b6000602082019050818103600083015261242c816120a5565b9050919050565b6000602082019050818103600083015261244c816120c8565b9050919050565b6000602082019050818103600083015261246c816120eb565b9050919050565b6000602082019050818103600083015261248c8161210e565b9050919050565b600060208201905081810360008301526124ac81612131565b9050919050565b600060208201905081810360008301526124cc81612154565b9050919050565b600060208201905081810360008301526124ec81612177565b9050919050565b6000602082019050818103600083015261250c8161219a565b9050919050565b6000602082019050818103600083015261252c816121bd565b9050919050565b6000602082019050818103600083015261254c816121e0565b9050919050565b6000602082019050818103600083015261256c81612203565b9050919050565b6000602082019050818103600083015261258c81612226565b9050919050565b60006080820190506125a86000830184612249565b92915050565b60006020820190506125c360008301846122ad565b92915050565b60006125d36125e4565b90506125df8282612812565b919050565b6000604051905090565b600067ffffffffffffffff82111561260957612608612979565b5b612612826129bc565b9050602081019050919050565b600081519050919050565b600081519050919050565b600082825260208201905092915050565b600082825260208201905092915050565b600081905092915050565b600061266d82612787565b915061267883612787565b9250827fffffffffffffffffffffffffffffffffffffffffffffffffffffffffffffffff038211156126ad576126ac6128bd565b5b828201905092915050565b60006126c382612787565b91506126ce83612787565b9250826126de576126dd6128ec565b5b828204905092915050565b60006126f482612787565b91506126ff83612787565b925082821015612712576127116128bd565b5b828203905092915050565b600061272882612767565b9050919050565b60008115159050919050565b60007fffffffff0000000000000000000000000000000000000000000000000000000082169050919050565b600073ffffffffffffffffffffffffffffffffffffffff82169050919050565b6000819050919050565b600060ff82169050919050565b82818337600083830152505050565b60005b838110156127cb5780820151818401526020810190506127b0565b838111156127da576000848401525b50505050565b600060028204905060018216806127f857607f821691505b6020821081141561280c5761280b61291b565b5b50919050565b61281b826129bc565b810181811067ffffffffffffffff8211171561283a57612839612979565b5b80604052505050565b600061284e82612787565b91507fffffffffffffffffffffffffffffffffffffffffffffffffffffffffffffffff821415612881576128806128bd565b5b600182019050919050565b600061289782612787565b91506128a283612787565b9250826128b2576128b16128ec565b5b828206905092915050565b7f4e487b7100000000000000000000000000000000000000000000000000000000600052601160045260246000fd5b7f4e487b7100000000000000000000000000000000000000000000000000000000600052601260045260246000fd5b7f4e487b7100000000000000000000000000000000000000000000000000000000600052602260045260246000fd5b7f4e487b7100000000000000000000000000000000000000000000000000000000600052603260045260246000fd5b7f4e487b7100000000000000000000000000000000000000000000000000000000600052604160045260246000fd5b600080fd5b600080fd5b600080fd5b600080fd5b6000601f19601f8301169050919050565b7f4552433732313a207472616e7366657220746f206e6f6e20455243373231526560008201527f63656976657220696d706c656d656e7465720000000000000000000000000000602082015250565b7f4f776e61626c653a206e6577206f776e657220697320746865207a65726f206160008201527f6464726573730000000000000000000000000000000000000000000000000000602082015250565b7f4552433732313a20746f6b656e20616c7265616479206d696e74656400000000600082015250565b7f4552433732313a207472616e7366657220746f20746865207a65726f2061646460008201527f7265737300000000000000000000000000000000000000000000000000000000602082015250565b7f4552433732313a20617070726f766520746f2063616c6c657200000000000000600082015250565b7f4552433732313a206f70657261746f7220717565727920666f72206e6f6e657860008201527f697374656e7420746f6b656e0000000000000000000000000000000000000000602082015250565b7f4552433732313a20617070726f76652063616c6c6572206973206e6f74206f7760008201527f6e6572206e6f7220617070726f76656420666f7220616c6c0000000000000000602082015250565b7f4552433732313a2062616c616e636520717565727920666f7220746865207a6560008201527f726f206164647265737300000000000000000000000000000000000000000000602082015250565b7f4552433732313a206f776e657220717565727920666f72206e6f6e657869737460008201527f656e7420746f6b656e0000000000000000000000000000000000000000000000602082015250565b7f4552433732313a206d696e7420746f20746865207a65726f2061646472657373600082015250565b7f4552433732313a20617070726f76656420717565727920666f72206e6f6e657860008201527f697374656e7420746f6b656e0000000000000000000000000000000000000000602082015250565b7f4f776e61626c653a2063616c6c6572206973206e6f7420746865206f776e6572600082015250565b7f4552433732313a207472616e73666572206f6620746f6b656e2074686174206960008201527f73206e6f74206f776e0000000000000000000000000000000000000000000000602082015250565b7f4552433732314d657461646174613a2055524920717565727920666f72206e6f60008201527f6e6578697374656e7420746f6b656e0000000000000000000000000000000000602082015250565b7f4552433732313a20617070726f76616c20746f2063757272656e74206f776e6560008201527f7200000000000000000000000000000000000000000000000000000000000000602082015250565b7f4552433732313a207472616e736665722063616c6c6572206973206e6f74206f60008201527f776e6572206e6f7220617070726f766564000000000000000000000000000000602082015250565b612e2e8161271d565b8114612e3957600080fd5b50565b612e458161272f565b8114612e5057600080fd5b50565b612e5c8161273b565b8114612e6757600080fd5b50565b612e7381612787565b8114612e7e57600080fd5b50565b612e8a81612791565b8114612e9557600080fd5b5056fea264697066735822122039da05e3b0cf3f7580fe51cddcb769a40524a0d65f118e22cc6656ab87e19a8964736f6c63430008060033",
  "immutableReferences": {},
  "source": "// SPDX-License-Identifier: MIT\r\npragma solidity ^0.8.0;\r\n\r\n// https://youtu.be/_VVqa7zWSxA\r\n// I BUILT NFT GAME IN 12 HOURS\r\n// with Fillip - Moralis Web3\r\n\r\nimport \"@openzeppelin/contracts/token/ERC721/ERC721.sol\";\r\nimport \"@openzeppelin/contracts/access/Ownable.sol\";\r\n\r\ncontract Token is ERC721, Ownable {\r\n\r\n  struct Pet {\r\n    uint8 damage; // 0-255\r\n    uint8 magic;\r\n    uint256 lastMeal;\r\n    uint256 endurance;\r\n  }\r\n\r\n  uint256 nextId = 0;\r\n\r\n\r\n  mapping(uint256 => Pet) private _tokenDetails;\r\n\r\n\r\n  constructor(string memory name, string memory symbol) ERC721(name, symbol) {\r\n    \r\n  }\r\n\r\n\r\n  function getTokenDetails(uint256 tokenId) public view returns(Pet memory) {\r\n    return _tokenDetails[tokenId];\r\n  }\r\n\r\n\r\n  function mint(uint8 damage, uint8 magic, uint256 endurance) public onlyOwner {\r\n    _tokenDetails[nextId] = Pet(damage, magic, block.timestamp, endurance);\r\n    _safeMint(msg.sender, nextId);\r\n    nextId++;\r\n  }\r\n\r\n\r\n  function feed(uint256 tokenId) public {\r\n    Pet storage pet = _tokenDetails[tokenId];\r\n    require(pet.lastMeal + pet.endurance > block.timestamp);\r\n    pet.lastMeal = block.timestamp;\r\n  }\r\n\r\n\r\n  function _beforeTokenTransfer(address from, address to, uint256 tokenId) internal virtual override {\r\n      Pet storage pet = _tokenDetails[tokenId];\r\n      require(pet.lastMeal + pet.endurance > block.timestamp); // pet is still alive\r\n    }\r\n\r\n}",
  "sourcePath": "C:/Users/benX/Documents/ethereum_course_advanced/NFT_GAMES_BL/contracts/token.sol",
  "compiler": {
    "name": "solc",
    "version": "0.8.6+commit.11564f7e.Emscripten.clang"
  },
  "schemaVersion": "3.4.1",
  "updatedAt": "2021-07-24T21:36:58.859Z",
  "networkType": "ethereum",
  "devdoc": {
    "kind": "dev",
    "methods": {
      "approve(address,uint256)": {
        "details": "See {IERC721-approve}."
      },
      "balanceOf(address)": {
        "details": "See {IERC721-balanceOf}."
      },
      "getApproved(uint256)": {
        "details": "See {IERC721-getApproved}."
      },
      "isApprovedForAll(address,address)": {
        "details": "See {IERC721-isApprovedForAll}."
      },
      "name()": {
        "details": "See {IERC721Metadata-name}."
      },
      "owner()": {
        "details": "Returns the address of the current owner."
      },
      "ownerOf(uint256)": {
        "details": "See {IERC721-ownerOf}."
      },
      "renounceOwnership()": {
        "details": "Leaves the contract without owner. It will not be possible to call `onlyOwner` functions anymore. Can only be called by the current owner. NOTE: Renouncing ownership will leave the contract without an owner, thereby removing any functionality that is only available to the owner."
      },
      "safeTransferFrom(address,address,uint256)": {
        "details": "See {IERC721-safeTransferFrom}."
      },
      "safeTransferFrom(address,address,uint256,bytes)": {
        "details": "See {IERC721-safeTransferFrom}."
      },
      "setApprovalForAll(address,bool)": {
        "details": "See {IERC721-setApprovalForAll}."
      },
      "supportsInterface(bytes4)": {
        "details": "See {IERC165-supportsInterface}."
      },
      "symbol()": {
        "details": "See {IERC721Metadata-symbol}."
      },
      "tokenURI(uint256)": {
        "details": "See {IERC721Metadata-tokenURI}."
      },
      "transferFrom(address,address,uint256)": {
        "details": "See {IERC721-transferFrom}."
      },
      "transferOwnership(address)": {
        "details": "Transfers ownership of the contract to a new account (`newOwner`). Can only be called by the current owner."
      }
    },
    "version": 1
  },
  "userdoc": {
    "kind": "user",
    "methods": {},
    "version": 1
  }
}