{
  "contractName": "Token",
  "abi": [
    {
      "inputs": [
        {
          "internalType": "string",
          "name": "name",
          "type": "string"
        },
        {
          "internalType": "string",
          "name": "symbol",
          "type": "string"
        }
      ],
      "stateMutability": "nonpayable",
      "type": "constructor"
    },
    {
      "anonymous": false,
      "inputs": [
        {
          "indexed": true,
          "internalType": "address",
          "name": "owner",
          "type": "address"
        },
        {
          "indexed": true,
          "internalType": "address",
          "name": "approved",
          "type": "address"
        },
        {
          "indexed": true,
          "internalType": "uint256",
          "name": "tokenId",
          "type": "uint256"
        }
      ],
      "name": "Approval",
      "type": "event"
    },
    {
      "anonymous": false,
      "inputs": [
        {
          "indexed": true,
          "internalType": "address",
          "name": "owner",
          "type": "address"
        },
        {
          "indexed": true,
          "internalType": "address",
          "name": "operator",
          "type": "address"
        },
        {
          "indexed": false,
          "internalType": "bool",
          "name": "approved",
          "type": "bool"
        }
      ],
      "name": "ApprovalForAll",
      "type": "event"
    },
    {
      "anonymous": false,
      "inputs": [
        {
          "indexed": true,
          "internalType": "address",
          "name": "previousOwner",
          "type": "address"
        },
        {
          "indexed": true,
          "internalType": "address",
          "name": "newOwner",
          "type": "address"
        }
      ],
      "name": "OwnershipTransferred",
      "type": "event"
    },
    {
      "anonymous": false,
      "inputs": [
        {
          "indexed": true,
          "internalType": "address",
          "name": "from",
          "type": "address"
        },
        {
          "indexed": true,
          "internalType": "address",
          "name": "to",
          "type": "address"
        },
        {
          "indexed": true,
          "internalType": "uint256",
          "name": "tokenId",
          "type": "uint256"
        }
      ],
      "name": "Transfer",
      "type": "event"
    },
    {
      "inputs": [
        {
          "internalType": "address",
          "name": "to",
          "type": "address"
        },
        {
          "internalType": "uint256",
          "name": "tokenId",
          "type": "uint256"
        }
      ],
      "name": "approve",
      "outputs": [],
      "stateMutability": "nonpayable",
      "type": "function"
    },
    {
      "inputs": [
        {
          "internalType": "address",
          "name": "owner",
          "type": "address"
        }
      ],
      "name": "balanceOf",
      "outputs": [
        {
          "internalType": "uint256",
          "name": "",
          "type": "uint256"
        }
      ],
      "stateMutability": "view",
      "type": "function",
      "constant": true
    },
    {
      "inputs": [
        {
          "internalType": "uint256",
          "name": "tokenId",
          "type": "uint256"
        }
      ],
      "name": "getApproved",
      "outputs": [
        {
          "internalType": "address",
          "name": "",
          "type": "address"
        }
      ],
      "stateMutability": "view",
      "type": "function",
      "constant": true
    },
    {
      "inputs": [
        {
          "internalType": "address",
          "name": "owner",
          "type": "address"
        },
        {
          "internalType": "address",
          "name": "operator",
          "type": "address"
        }
      ],
      "name": "isApprovedForAll",
      "outputs": [
        {
          "internalType": "bool",
          "name": "",
          "type": "bool"
        }
      ],
      "stateMutability": "view",
      "type": "function",
      "constant": true
    },
    {
      "inputs": [],
      "name": "name",
      "outputs": [
        {
          "internalType": "string",
          "name": "",
          "type": "string"
        }
      ],
      "stateMutability": "view",
      "type": "function",
      "constant": true
    },
    {
      "inputs": [],
      "name": "owner",
      "outputs": [
        {
          "internalType": "address",
          "name": "",
          "type": "address"
        }
      ],
      "stateMutability": "view",
      "type": "function",
      "constant": true
    },
    {
      "inputs": [
        {
          "internalType": "uint256",
          "name": "tokenId",
          "type": "uint256"
        }
      ],
      "name": "ownerOf",
      "outputs": [
        {
          "internalType": "address",
          "name": "",
          "type": "address"
        }
      ],
      "stateMutability": "view",
      "type": "function",
      "constant": true
    },
    {
      "inputs": [],
      "name": "renounceOwnership",
      "outputs": [],
      "stateMutability": "nonpayable",
      "type": "function"
    },
    {
      "inputs": [
        {
          "internalType": "address",
          "name": "from",
          "type": "address"
        },
        {
          "internalType": "address",
          "name": "to",
          "type": "address"
        },
        {
          "internalType": "uint256",
          "name": "tokenId",
          "type": "uint256"
        }
      ],
      "name": "safeTransferFrom",
      "outputs": [],
      "stateMutability": "nonpayable",
      "type": "function"
    },
    {
      "inputs": [
        {
          "internalType": "address",
          "name": "from",
          "type": "address"
        },
        {
          "internalType": "address",
          "name": "to",
          "type": "address"
        },
        {
          "internalType": "uint256",
          "name": "tokenId",
          "type": "uint256"
        },
        {
          "internalType": "bytes",
          "name": "_data",
          "type": "bytes"
        }
      ],
      "name": "safeTransferFrom",
      "outputs": [],
      "stateMutability": "nonpayable",
      "type": "function"
    },
    {
      "inputs": [
        {
          "internalType": "address",
          "name": "operator",
          "type": "address"
        },
        {
          "internalType": "bool",
          "name": "approved",
          "type": "bool"
        }
      ],
      "name": "setApprovalForAll",
      "outputs": [],
      "stateMutability": "nonpayable",
      "type": "function"
    },
    {
      "inputs": [
        {
          "internalType": "bytes4",
          "name": "interfaceId",
          "type": "bytes4"
        }
      ],
      "name": "supportsInterface",
      "outputs": [
        {
          "internalType": "bool",
          "name": "",
          "type": "bool"
        }
      ],
      "stateMutability": "view",
      "type": "function",
      "constant": true
    },
    {
      "inputs": [],
      "name": "symbol",
      "outputs": [
        {
          "internalType": "string",
          "name": "",
          "type": "string"
        }
      ],
      "stateMutability": "view",
      "type": "function",
      "constant": true
    },
    {
      "inputs": [
        {
          "internalType": "uint256",
          "name": "tokenId",
          "type": "uint256"
        }
      ],
      "name": "tokenURI",
      "outputs": [
        {
          "internalType": "string",
          "name": "",
          "type": "string"
        }
      ],
      "stateMutability": "view",
      "type": "function",
      "constant": true
    },
    {
      "inputs": [
        {
          "internalType": "address",
          "name": "from",
          "type": "address"
        },
        {
          "internalType": "address",
          "name": "to",
          "type": "address"
        },
        {
          "internalType": "uint256",
          "name": "tokenId",
          "type": "uint256"
        }
      ],
      "name": "transferFrom",
      "outputs": [],
      "stateMutability": "nonpayable",
      "type": "function"
    },
    {
      "inputs": [
        {
          "internalType": "address",
          "name": "newOwner",
          "type": "address"
        }
      ],
      "name": "transferOwnership",
      "outputs": [],
      "stateMutability": "nonpayable",
      "type": "function"
    },
    {
      "inputs": [
        {
          "internalType": "uint256",
          "name": "tokenId",
          "type": "uint256"
        }
      ],
      "name": "getTokenDetails",
      "outputs": [
        {
          "components": [
            {
              "internalType": "uint8",
              "name": "damage",
              "type": "uint8"
            },
            {
              "internalType": "uint8",
              "name": "magic",
              "type": "uint8"
            },
            {
              "internalType": "uint256",
              "name": "lastMeal",
              "type": "uint256"
            },
            {
              "internalType": "uint256",
              "name": "endurance",
              "type": "uint256"
            }
          ],
          "internalType": "struct Token.Pet",
          "name": "",
          "type": "tuple"
        }
      ],
      "stateMutability": "view",
      "type": "function",
      "constant": true
    },
    {
      "inputs": [
        {
          "internalType": "uint8",
          "name": "damage",
          "type": "uint8"
        },
        {
          "internalType": "uint8",
          "name": "magic",
          "type": "uint8"
        },
        {
          "internalType": "uint256",
          "name": "endurance",
          "type": "uint256"
        }
      ],
      "name": "mint",
      "outputs": [],
      "stateMutability": "nonpayable",
      "type": "function"
    },
    {
      "inputs": [
        {
          "internalType": "uint256",
          "name": "tokenId",
          "type": "uint256"
        }
      ],
      "name": "feed",
      "outputs": [],
      "stateMutability": "nonpayable",
      "type": "function"
    },
    {
      "inputs": [
        {
          "internalType": "address",
          "name": "user",
          "type": "address"
        }
      ],
      "name": "getAllTokensForUser",
      "outputs": [
        {
          "internalType": "uint256[]",
          "name": "",
          "type": "uint256[]"
        }
      ],
      "stateMutability": "view",
      "type": "function",
      "constant": true
    }
  ],
  "bytecode": "0x608060405260006007553480156200001657600080fd5b50604051620035df380380620035df83398181016040528101906200003c919062000296565b818181600090805190602001906200005692919062000168565b5080600190805190602001906200006f92919062000168565b50505062000092620000866200009a60201b60201c565b620000a260201b60201c565b50506200049f565b600033905090565b6000600660009054906101000a900473ffffffffffffffffffffffffffffffffffffffff16905081600660006101000a81548173ffffffffffffffffffffffffffffffffffffffff021916908373ffffffffffffffffffffffffffffffffffffffff1602179055508173ffffffffffffffffffffffffffffffffffffffff168173ffffffffffffffffffffffffffffffffffffffff167f8be0079c531659141344cd1fd0a4f28419497f9722a3daafe3b4186f6b6457e060405160405180910390a35050565b8280546200017690620003b0565b90600052602060002090601f0160209004810192826200019a5760008555620001e6565b82601f10620001b557805160ff1916838001178555620001e6565b82800160010185558215620001e6579182015b82811115620001e5578251825591602001919060010190620001c8565b5b509050620001f59190620001f9565b5090565b5b8082111562000214576000816000905550600101620001fa565b5090565b60006200022f620002298462000344565b6200031b565b9050828152602081018484840111156200024e576200024d6200047f565b5b6200025b8482856200037a565b509392505050565b600082601f8301126200027b576200027a6200047a565b5b81516200028d84826020860162000218565b91505092915050565b60008060408385031215620002b057620002af62000489565b5b600083015167ffffffffffffffff811115620002d157620002d062000484565b5b620002df8582860162000263565b925050602083015167ffffffffffffffff81111562000303576200030262000484565b5b620003118582860162000263565b9150509250929050565b6000620003276200033a565b9050620003358282620003e6565b919050565b6000604051905090565b600067ffffffffffffffff8211156200036257620003616200044b565b5b6200036d826200048e565b9050602081019050919050565b60005b838110156200039a5780820151818401526020810190506200037d565b83811115620003aa576000848401525b50505050565b60006002820490506001821680620003c957607f821691505b60208210811415620003e057620003df6200041c565b5b50919050565b620003f1826200048e565b810181811067ffffffffffffffff821117156200041357620004126200044b565b5b80604052505050565b7f4e487b7100000000000000000000000000000000000000000000000000000000600052602260045260246000fd5b7f4e487b7100000000000000000000000000000000000000000000000000000000600052604160045260246000fd5b600080fd5b600080fd5b600080fd5b600080fd5b6000601f19601f8301169050919050565b61313080620004af6000396000f3fe608060405234801561001057600080fd5b506004361061012c5760003560e01c80638da5cb5b116100ad578063c87b56dd11610071578063c87b56dd14610341578063e985e9c514610371578063eb22ed32146103a1578063f2fde38b146103bd578063f59dfdfb146103d95761012c565b80638da5cb5b1461029d57806395d89b41146102bb578063a22cb465146102d9578063b88d4fde146102f5578063c1e03728146103115761012c565b806342842e0e116100f457806342842e0e146101e75780636352211e1461020357806370a0823114610233578063715018a61461026357806382de8fe91461026d5761012c565b806301ffc9a71461013157806306fdde0314610161578063081812fc1461017f578063095ea7b3146101af57806323b872dd146101cb575b600080fd5b61014b6004803603810190610146919061200f565b6103f5565b604051610158919061257f565b60405180910390f35b6101696104d7565b604051610176919061259a565b60405180910390f35b61019960048036038101906101949190612069565b610569565b6040516101a691906124f6565b60405180910390f35b6101c960048036038101906101c49190611fcf565b6105ee565b005b6101e560048036038101906101e09190611eb9565b610706565b005b61020160048036038101906101fc9190611eb9565b610766565b005b61021d60048036038101906102189190612069565b610786565b60405161022a91906124f6565b60405180910390f35b61024d60048036038101906102489190611e4c565b610838565b60405161025a91906127d7565b60405180910390f35b61026b6108f0565b005b61028760048036038101906102829190611e4c565b610978565b604051610294919061255d565b60405180910390f35b6102a5610ace565b6040516102b291906124f6565b60405180910390f35b6102c3610af8565b6040516102d0919061259a565b60405180910390f35b6102f360048036038101906102ee9190611f8f565b610b8a565b005b61030f600480360381019061030a9190611f0c565b610d0b565b005b61032b60048036038101906103269190612069565b610d6d565b60405161033891906127bc565b60405180910390f35b61035b60048036038101906103569190612069565b610de8565b604051610368919061259a565b60405180910390f35b61038b60048036038101906103869190611e79565b610e8f565b604051610398919061257f565b60405180910390f35b6103bb60048036038101906103b69190612096565b610f23565b005b6103d760048036038101906103d29190611e4c565b61105d565b005b6103f360048036038101906103ee9190612069565b611155565b005b60007f80ac58cd000000000000000000000000000000000000000000000000000000007bffffffffffffffffffffffffffffffffffffffffffffffffffffffff1916827bffffffffffffffffffffffffffffffffffffffffffffffffffffffff191614806104c057507f5b5e139f000000000000000000000000000000000000000000000000000000007bffffffffffffffffffffffffffffffffffffffffffffffffffffffff1916827bffffffffffffffffffffffffffffffffffffffffffffffffffffffff1916145b806104d057506104cf82611198565b5b9050919050565b6060600080546104e690612a42565b80601f016020809104026020016040519081016040528092919081815260200182805461051290612a42565b801561055f5780601f106105345761010080835404028352916020019161055f565b820191906000526020600020905b81548152906001019060200180831161054257829003601f168201915b5050505050905090565b600061057482611202565b6105b3576040517f08c379a00000000000000000000000000000000000000000000000000000000081526004016105aa906126fc565b60405180910390fd5b6004600083815260200190815260200160002060009054906101000a900473ffffffffffffffffffffffffffffffffffffffff169050919050565b60006105f982610786565b90508073ffffffffffffffffffffffffffffffffffffffff168373ffffffffffffffffffffffffffffffffffffffff16141561066a576040517f08c379a00000000000000000000000000000000000000000000000000000000081526004016106619061277c565b60405180910390fd5b8073ffffffffffffffffffffffffffffffffffffffff1661068961126e565b73ffffffffffffffffffffffffffffffffffffffff1614806106b857506106b7816106b261126e565b610e8f565b5b6106f7576040517f08c379a00000000000000000000000000000000000000000000000000000000081526004016106ee9061267c565b60405180910390fd5b6107018383611276565b505050565b61071761071161126e565b8261132f565b610756576040517f08c379a000000000000000000000000000000000000000000000000000000000815260040161074d9061279c565b60405180910390fd5b61076183838361140d565b505050565b61078183838360405180602001604052806000815250610d0b565b505050565b6000806002600084815260200190815260200160002060009054906101000a900473ffffffffffffffffffffffffffffffffffffffff169050600073ffffffffffffffffffffffffffffffffffffffff168173ffffffffffffffffffffffffffffffffffffffff16141561082f576040517f08c379a0000000000000000000000000000000000000000000000000000000008152600401610826906126bc565b60405180910390fd5b80915050919050565b60008073ffffffffffffffffffffffffffffffffffffffff168273ffffffffffffffffffffffffffffffffffffffff1614156108a9576040517f08c379a00000000000000000000000000000000000000000000000000000000081526004016108a09061269c565b60405180910390fd5b600360008373ffffffffffffffffffffffffffffffffffffffff1673ffffffffffffffffffffffffffffffffffffffff168152602001908152602001600020549050919050565b6108f861126e565b73ffffffffffffffffffffffffffffffffffffffff16610916610ace565b73ffffffffffffffffffffffffffffffffffffffff161461096c576040517f08c379a00000000000000000000000000000000000000000000000000000000081526004016109639061271c565b60405180910390fd5b6109766000611669565b565b6060600061098583610838565b905060008114156109e257600067ffffffffffffffff8111156109ab576109aa612bdb565b5b6040519080825280602002602001820160405280156109d95781602001602082028036833780820191505090505b50915050610ac9565b60008167ffffffffffffffff8111156109fe576109fd612bdb565b5b604051908082528060200260200182016040528015610a2c5781602001602082028036833780820191505090505b509050600060075490506000805b82811015610ac0578673ffffffffffffffffffffffffffffffffffffffff16610a6282610786565b73ffffffffffffffffffffffffffffffffffffffff161415610aad5780848381518110610a9257610a91612bac565b5b6020026020010181815250508180610aa990612aa5565b9250505b8080610ab890612aa5565b915050610a3a565b83955050505050505b919050565b6000600660009054906101000a900473ffffffffffffffffffffffffffffffffffffffff16905090565b606060018054610b0790612a42565b80601f0160208091040260200160405190810160405280929190818152602001828054610b3390612a42565b8015610b805780601f10610b5557610100808354040283529160200191610b80565b820191906000526020600020905b815481529060010190602001808311610b6357829003601f168201915b5050505050905090565b610b9261126e565b73ffffffffffffffffffffffffffffffffffffffff168273ffffffffffffffffffffffffffffffffffffffff161415610c00576040517f08c379a0000000000000000000000000000000000000000000000000000000008152600401610bf79061263c565b60405180910390fd5b8060056000610c0d61126e565b73ffffffffffffffffffffffffffffffffffffffff1673ffffffffffffffffffffffffffffffffffffffff16815260200190815260200160002060008473ffffffffffffffffffffffffffffffffffffffff1673ffffffffffffffffffffffffffffffffffffffff16815260200190815260200160002060006101000a81548160ff0219169083151502179055508173ffffffffffffffffffffffffffffffffffffffff16610cba61126e565b73ffffffffffffffffffffffffffffffffffffffff167f17307eab39ab6107e8899845ad3d59bd9653f200f220920489ca2b5937696c3183604051610cff919061257f565b60405180910390a35050565b610d1c610d1661126e565b8361132f565b610d5b576040517f08c379a0000000000000000000000000000000000000000000000000000000008152600401610d529061279c565b60405180910390fd5b610d678484848461172f565b50505050565b610d75611d30565b600860008381526020019081526020016000206040518060800160405290816000820160009054906101000a900460ff1660ff1660ff1681526020016000820160019054906101000a900460ff1660ff1660ff168152602001600182015481526020016002820154815250509050919050565b6060610df382611202565b610e32576040517f08c379a0000000000000000000000000000000000000000000000000000000008152600401610e299061275c565b60405180910390fd5b6000610e3c61178b565b90506000815111610e5c5760405180602001604052806000815250610e87565b80610e66846117a2565b604051602001610e779291906124d2565b6040516020818303038152906040525b915050919050565b6000600560008473ffffffffffffffffffffffffffffffffffffffff1673ffffffffffffffffffffffffffffffffffffffff16815260200190815260200160002060008373ffffffffffffffffffffffffffffffffffffffff1673ffffffffffffffffffffffffffffffffffffffff16815260200190815260200160002060009054906101000a900460ff16905092915050565b610f2b61126e565b73ffffffffffffffffffffffffffffffffffffffff16610f49610ace565b73ffffffffffffffffffffffffffffffffffffffff1614610f9f576040517f08c379a0000000000000000000000000000000000000000000000000000000008152600401610f969061271c565b60405180910390fd5b60405180608001604052808460ff1681526020018360ff1681526020014281526020018281525060086000600754815260200190815260200160002060008201518160000160006101000a81548160ff021916908360ff16021790555060208201518160000160016101000a81548160ff021916908360ff160217905550604082015181600101556060820151816002015590505061104033600754611903565b6007600081548092919061105390612aa5565b9190505550505050565b61106561126e565b73ffffffffffffffffffffffffffffffffffffffff16611083610ace565b73ffffffffffffffffffffffffffffffffffffffff16146110d9576040517f08c379a00000000000000000000000000000000000000000000000000000000081526004016110d09061271c565b60405180910390fd5b600073ffffffffffffffffffffffffffffffffffffffff168173ffffffffffffffffffffffffffffffffffffffff161415611149576040517f08c379a0000000000000000000000000000000000000000000000000000000008152600401611140906125dc565b60405180910390fd5b61115281611669565b50565b6000600860008381526020019081526020016000209050428160020154826001015461118191906128c4565b1161118b57600080fd5b4281600101819055505050565b60007f01ffc9a7000000000000000000000000000000000000000000000000000000007bffffffffffffffffffffffffffffffffffffffffffffffffffffffff1916827bffffffffffffffffffffffffffffffffffffffffffffffffffffffff1916149050919050565b60008073ffffffffffffffffffffffffffffffffffffffff166002600084815260200190815260200160002060009054906101000a900473ffffffffffffffffffffffffffffffffffffffff1673ffffffffffffffffffffffffffffffffffffffff1614159050919050565b600033905090565b816004600083815260200190815260200160002060006101000a81548173ffffffffffffffffffffffffffffffffffffffff021916908373ffffffffffffffffffffffffffffffffffffffff160217905550808273ffffffffffffffffffffffffffffffffffffffff166112e983610786565b73ffffffffffffffffffffffffffffffffffffffff167f8c5be1e5ebec7d5bd14f71427d1e84f3dd0314c0f7b2291e5b200ac8c7c3b92560405160405180910390a45050565b600061133a82611202565b611379576040517f08c379a00000000000000000000000000000000000000000000000000000000081526004016113709061265c565b60405180910390fd5b600061138483610786565b90508073ffffffffffffffffffffffffffffffffffffffff168473ffffffffffffffffffffffffffffffffffffffff1614806113f357508373ffffffffffffffffffffffffffffffffffffffff166113db84610569565b73ffffffffffffffffffffffffffffffffffffffff16145b8061140457506114038185610e8f565b5b91505092915050565b8273ffffffffffffffffffffffffffffffffffffffff1661142d82610786565b73ffffffffffffffffffffffffffffffffffffffff1614611483576040517f08c379a000000000000000000000000000000000000000000000000000000000815260040161147a9061273c565b60405180910390fd5b600073ffffffffffffffffffffffffffffffffffffffff168273ffffffffffffffffffffffffffffffffffffffff1614156114f3576040517f08c379a00000000000000000000000000000000000000000000000000000000081526004016114ea9061261c565b60405180910390fd5b6114fe838383611921565b611509600082611276565b6001600360008573ffffffffffffffffffffffffffffffffffffffff1673ffffffffffffffffffffffffffffffffffffffff1681526020019081526020016000206000828254611559919061294b565b925050819055506001600360008473ffffffffffffffffffffffffffffffffffffffff1673ffffffffffffffffffffffffffffffffffffffff16815260200190815260200160002060008282546115b091906128c4565b92505081905550816002600083815260200190815260200160002060006101000a81548173ffffffffffffffffffffffffffffffffffffffff021916908373ffffffffffffffffffffffffffffffffffffffff160217905550808273ffffffffffffffffffffffffffffffffffffffff168473ffffffffffffffffffffffffffffffffffffffff167fddf252ad1be2c89b69c2b068fc378daa952ba7f163c4a11628f55a4df523b3ef60405160405180910390a4505050565b6000600660009054906101000a900473ffffffffffffffffffffffffffffffffffffffff16905081600660006101000a81548173ffffffffffffffffffffffffffffffffffffffff021916908373ffffffffffffffffffffffffffffffffffffffff1602179055508173ffffffffffffffffffffffffffffffffffffffff168173ffffffffffffffffffffffffffffffffffffffff167f8be0079c531659141344cd1fd0a4f28419497f9722a3daafe3b4186f6b6457e060405160405180910390a35050565b61173a84848461140d565b6117468484848461195d565b611785576040517f08c379a000000000000000000000000000000000000000000000000000000000815260040161177c906125bc565b60405180910390fd5b50505050565b606060405180602001604052806000815250905090565b606060008214156117ea576040518060400160405280600181526020017f300000000000000000000000000000000000000000000000000000000000000081525090506118fe565b600082905060005b6000821461181c57808061180590612aa5565b915050600a82611815919061291a565b91506117f2565b60008167ffffffffffffffff81111561183857611837612bdb565b5b6040519080825280601f01601f19166020018201604052801561186a5781602001600182028036833780820191505090505b5090505b600085146118f757600182611883919061294b565b9150600a856118929190612aee565b603061189e91906128c4565b60f81b8183815181106118b4576118b3612bac565b5b60200101907effffffffffffffffffffffffffffffffffffffffffffffffffffffffffffff1916908160001a905350600a856118f0919061291a565b945061186e565b8093505050505b919050565b61191d828260405180602001604052806000815250611af4565b5050565b6000600860008381526020019081526020016000209050428160020154826001015461194d91906128c4565b1161195757600080fd5b50505050565b600061197e8473ffffffffffffffffffffffffffffffffffffffff16611b4f565b15611ae7578373ffffffffffffffffffffffffffffffffffffffff1663150b7a026119a761126e565b8786866040518563ffffffff1660e01b81526004016119c99493929190612511565b602060405180830381600087803b1580156119e357600080fd5b505af1925050508015611a1457506040513d601f19601f82011682018060405250810190611a11919061203c565b60015b611a97573d8060008114611a44576040519150601f19603f3d011682016040523d82523d6000602084013e611a49565b606091505b50600081511415611a8f576040517f08c379a0000000000000000000000000000000000000000000000000000000008152600401611a86906125bc565b60405180910390fd5b805181602001fd5b63150b7a0260e01b7bffffffffffffffffffffffffffffffffffffffffffffffffffffffff1916817bffffffffffffffffffffffffffffffffffffffffffffffffffffffff191614915050611aec565b600190505b949350505050565b611afe8383611b62565b611b0b600084848461195d565b611b4a576040517f08c379a0000000000000000000000000000000000000000000000000000000008152600401611b41906125bc565b60405180910390fd5b505050565b600080823b905060008111915050919050565b600073ffffffffffffffffffffffffffffffffffffffff168273ffffffffffffffffffffffffffffffffffffffff161415611bd2576040517f08c379a0000000000000000000000000000000000000000000000000000000008152600401611bc9906126dc565b60405180910390fd5b611bdb81611202565b15611c1b576040517f08c379a0000000000000000000000000000000000000000000000000000000008152600401611c12906125fc565b60405180910390fd5b611c2760008383611921565b6001600360008473ffffffffffffffffffffffffffffffffffffffff1673ffffffffffffffffffffffffffffffffffffffff1681526020019081526020016000206000828254611c7791906128c4565b92505081905550816002600083815260200190815260200160002060006101000a81548173ffffffffffffffffffffffffffffffffffffffff021916908373ffffffffffffffffffffffffffffffffffffffff160217905550808273ffffffffffffffffffffffffffffffffffffffff16600073ffffffffffffffffffffffffffffffffffffffff167fddf252ad1be2c89b69c2b068fc378daa952ba7f163c4a11628f55a4df523b3ef60405160405180910390a45050565b6040518060800160405280600060ff168152602001600060ff16815260200160008152602001600081525090565b6000611d71611d6c84612817565b6127f2565b905082815260208101848484011115611d8d57611d8c612c0f565b5b611d98848285612a00565b509392505050565b600081359050611daf81613087565b92915050565b600081359050611dc48161309e565b92915050565b600081359050611dd9816130b5565b92915050565b600081519050611dee816130b5565b92915050565b600082601f830112611e0957611e08612c0a565b5b8135611e19848260208601611d5e565b91505092915050565b600081359050611e31816130cc565b92915050565b600081359050611e46816130e3565b92915050565b600060208284031215611e6257611e61612c19565b5b6000611e7084828501611da0565b91505092915050565b60008060408385031215611e9057611e8f612c19565b5b6000611e9e85828601611da0565b9250506020611eaf85828601611da0565b9150509250929050565b600080600060608486031215611ed257611ed1612c19565b5b6000611ee086828701611da0565b9350506020611ef186828701611da0565b9250506040611f0286828701611e22565b9150509250925092565b60008060008060808587031215611f2657611f25612c19565b5b6000611f3487828801611da0565b9450506020611f4587828801611da0565b9350506040611f5687828801611e22565b925050606085013567ffffffffffffffff811115611f7757611f76612c14565b5b611f8387828801611df4565b91505092959194509250565b60008060408385031215611fa657611fa5612c19565b5b6000611fb485828601611da0565b9250506020611fc585828601611db5565b9150509250929050565b60008060408385031215611fe657611fe5612c19565b5b6000611ff485828601611da0565b925050602061200585828601611e22565b9150509250929050565b60006020828403121561202557612024612c19565b5b600061203384828501611dca565b91505092915050565b60006020828403121561205257612051612c19565b5b600061206084828501611ddf565b91505092915050565b60006020828403121561207f5761207e612c19565b5b600061208d84828501611e22565b91505092915050565b6000806000606084860312156120af576120ae612c19565b5b60006120bd86828701611e37565b93505060206120ce86828701611e37565b92505060406120df86828701611e22565b9150509250925092565b60006120f583836124a5565b60208301905092915050565b61210a8161297f565b82525050565b600061211b82612858565b6121258185612886565b935061213083612848565b8060005b8381101561216157815161214888826120e9565b975061215383612879565b925050600181019050612134565b5085935050505092915050565b61217781612991565b82525050565b600061218882612863565b6121928185612897565b93506121a2818560208601612a0f565b6121ab81612c1e565b840191505092915050565b60006121c18261286e565b6121cb81856128a8565b93506121db818560208601612a0f565b6121e481612c1e565b840191505092915050565b60006121fa8261286e565b61220481856128b9565b9350612214818560208601612a0f565b80840191505092915050565b600061222d6032836128a8565b915061223882612c2f565b604082019050919050565b60006122506026836128a8565b915061225b82612c7e565b604082019050919050565b6000612273601c836128a8565b915061227e82612ccd565b602082019050919050565b60006122966024836128a8565b91506122a182612cf6565b604082019050919050565b60006122b96019836128a8565b91506122c482612d45565b602082019050919050565b60006122dc602c836128a8565b91506122e782612d6e565b604082019050919050565b60006122ff6038836128a8565b915061230a82612dbd565b604082019050919050565b6000612322602a836128a8565b915061232d82612e0c565b604082019050919050565b60006123456029836128a8565b915061235082612e5b565b604082019050919050565b60006123686020836128a8565b915061237382612eaa565b602082019050919050565b600061238b602c836128a8565b915061239682612ed3565b604082019050919050565b60006123ae6020836128a8565b91506123b982612f22565b602082019050919050565b60006123d16029836128a8565b91506123dc82612f4b565b604082019050919050565b60006123f4602f836128a8565b91506123ff82612f9a565b604082019050919050565b60006124176021836128a8565b915061242282612fe9565b604082019050919050565b600061243a6031836128a8565b915061244582613038565b604082019050919050565b60808201600082015161246660008501826124c3565b50602082015161247960208501826124c3565b50604082015161248c60408501826124a5565b50606082015161249f60608501826124a5565b50505050565b6124ae816129e9565b82525050565b6124bd816129e9565b82525050565b6124cc816129f3565b82525050565b60006124de82856121ef565b91506124ea82846121ef565b91508190509392505050565b600060208201905061250b6000830184612101565b92915050565b60006080820190506125266000830187612101565b6125336020830186612101565b61254060408301856124b4565b8181036060830152612552818461217d565b905095945050505050565b600060208201905081810360008301526125778184612110565b905092915050565b6000602082019050612594600083018461216e565b92915050565b600060208201905081810360008301526125b481846121b6565b905092915050565b600060208201905081810360008301526125d581612220565b9050919050565b600060208201905081810360008301526125f581612243565b9050919050565b6000602082019050818103600083015261261581612266565b9050919050565b6000602082019050818103600083015261263581612289565b9050919050565b60006020820190508181036000830152612655816122ac565b9050919050565b60006020820190508181036000830152612675816122cf565b9050919050565b60006020820190508181036000830152612695816122f2565b9050919050565b600060208201905081810360008301526126b581612315565b9050919050565b600060208201905081810360008301526126d581612338565b9050919050565b600060208201905081810360008301526126f58161235b565b9050919050565b600060208201905081810360008301526127158161237e565b9050919050565b60006020820190508181036000830152612735816123a1565b9050919050565b60006020820190508181036000830152612755816123c4565b9050919050565b60006020820190508181036000830152612775816123e7565b9050919050565b600060208201905081810360008301526127958161240a565b9050919050565b600060208201905081810360008301526127b58161242d565b9050919050565b60006080820190506127d16000830184612450565b92915050565b60006020820190506127ec60008301846124b4565b92915050565b60006127fc61280d565b90506128088282612a74565b919050565b6000604051905090565b600067ffffffffffffffff82111561283257612831612bdb565b5b61283b82612c1e565b9050602081019050919050565b6000819050602082019050919050565b600081519050919050565b600081519050919050565b600081519050919050565b6000602082019050919050565b600082825260208201905092915050565b600082825260208201905092915050565b600082825260208201905092915050565b600081905092915050565b60006128cf826129e9565b91506128da836129e9565b9250827fffffffffffffffffffffffffffffffffffffffffffffffffffffffffffffffff0382111561290f5761290e612b1f565b5b828201905092915050565b6000612925826129e9565b9150612930836129e9565b9250826129405761293f612b4e565b5b828204905092915050565b6000612956826129e9565b9150612961836129e9565b92508282101561297457612973612b1f565b5b828203905092915050565b600061298a826129c9565b9050919050565b60008115159050919050565b60007fffffffff0000000000000000000000000000000000000000000000000000000082169050919050565b600073ffffffffffffffffffffffffffffffffffffffff82169050919050565b6000819050919050565b600060ff82169050919050565b82818337600083830152505050565b60005b83811015612a2d578082015181840152602081019050612a12565b83811115612a3c576000848401525b50505050565b60006002820490506001821680612a5a57607f821691505b60208210811415612a6e57612a6d612b7d565b5b50919050565b612a7d82612c1e565b810181811067ffffffffffffffff82111715612a9c57612a9b612bdb565b5b80604052505050565b6000612ab0826129e9565b91507fffffffffffffffffffffffffffffffffffffffffffffffffffffffffffffffff821415612ae357612ae2612b1f565b5b600182019050919050565b6000612af9826129e9565b9150612b04836129e9565b925082612b1457612b13612b4e565b5b828206905092915050565b7f4e487b7100000000000000000000000000000000000000000000000000000000600052601160045260246000fd5b7f4e487b7100000000000000000000000000000000000000000000000000000000600052601260045260246000fd5b7f4e487b7100000000000000000000000000000000000000000000000000000000600052602260045260246000fd5b7f4e487b7100000000000000000000000000000000000000000000000000000000600052603260045260246000fd5b7f4e487b7100000000000000000000000000000000000000000000000000000000600052604160045260246000fd5b600080fd5b600080fd5b600080fd5b600080fd5b6000601f19601f8301169050919050565b7f4552433732313a207472616e7366657220746f206e6f6e20455243373231526560008201527f63656976657220696d706c656d656e7465720000000000000000000000000000602082015250565b7f4f776e61626c653a206e6577206f776e657220697320746865207a65726f206160008201527f6464726573730000000000000000000000000000000000000000000000000000602082015250565b7f4552433732313a20746f6b656e20616c7265616479206d696e74656400000000600082015250565b7f4552433732313a207472616e7366657220746f20746865207a65726f2061646460008201527f7265737300000000000000000000000000000000000000000000000000000000602082015250565b7f4552433732313a20617070726f766520746f2063616c6c657200000000000000600082015250565b7f4552433732313a206f70657261746f7220717565727920666f72206e6f6e657860008201527f697374656e7420746f6b656e0000000000000000000000000000000000000000602082015250565b7f4552433732313a20617070726f76652063616c6c6572206973206e6f74206f7760008201527f6e6572206e6f7220617070726f76656420666f7220616c6c0000000000000000602082015250565b7f4552433732313a2062616c616e636520717565727920666f7220746865207a6560008201527f726f206164647265737300000000000000000000000000000000000000000000602082015250565b7f4552433732313a206f776e657220717565727920666f72206e6f6e657869737460008201527f656e7420746f6b656e0000000000000000000000000000000000000000000000602082015250565b7f4552433732313a206d696e7420746f20746865207a65726f2061646472657373600082015250565b7f4552433732313a20617070726f76656420717565727920666f72206e6f6e657860008201527f697374656e7420746f6b656e0000000000000000000000000000000000000000602082015250565b7f4f776e61626c653a2063616c6c6572206973206e6f7420746865206f776e6572600082015250565b7f4552433732313a207472616e73666572206f6620746f6b656e2074686174206960008201527f73206e6f74206f776e0000000000000000000000000000000000000000000000602082015250565b7f4552433732314d657461646174613a2055524920717565727920666f72206e6f60008201527f6e6578697374656e7420746f6b656e0000000000000000000000000000000000602082015250565b7f4552433732313a20617070726f76616c20746f2063757272656e74206f776e6560008201527f7200000000000000000000000000000000000000000000000000000000000000602082015250565b7f4552433732313a207472616e736665722063616c6c6572206973206e6f74206f60008201527f776e6572206e6f7220617070726f766564000000000000000000000000000000602082015250565b6130908161297f565b811461309b57600080fd5b50565b6130a781612991565b81146130b257600080fd5b50565b6130be8161299d565b81146130c957600080fd5b50565b6130d5816129e9565b81146130e057600080fd5b50565b6130ec816129f3565b81146130f757600080fd5b5056fea2646970667358221220f3af79c3898773ada932d7e8319ad461a8cfca669791d7699ac783e25f2c91ca64736f6c63430008060033",
  "immutableReferences": {},
  "source": "// SPDX-License-Identifier: MIT\r\npragma solidity ^0.8.0;\r\n\r\n// https://youtu.be/_VVqa7zWSxA\r\n// I BUILT NFT GAME IN 12 HOURS\r\n// with Fillip - Moralis Web3\r\n\r\nimport \"@openzeppelin/contracts/token/ERC721/ERC721.sol\";\r\nimport \"@openzeppelin/contracts/access/Ownable.sol\";\r\n\r\ncontract Token is ERC721, Ownable {\r\n\r\n  struct Pet {\r\n    uint8 damage; // 0-255\r\n    uint8 magic;\r\n    uint256 lastMeal;\r\n    uint256 endurance;\r\n  }\r\n\r\n  uint256 nextId = 0;\r\n\r\n\r\n  mapping(uint256 => Pet) private _tokenDetails;\r\n\r\n\r\n  constructor(string memory name, string memory symbol) ERC721(name, symbol) {}\r\n\r\n\r\n  function getTokenDetails(uint256 tokenId) public view returns(Pet memory) {\r\n    return _tokenDetails[tokenId];\r\n  }\r\n\r\n\r\n  function mint(uint8 damage, uint8 magic, uint256 endurance) public onlyOwner {\r\n    _tokenDetails[nextId] = Pet(damage, magic, block.timestamp, endurance);\r\n    _safeMint(msg.sender, nextId);\r\n    nextId++;\r\n  }\r\n\r\n\r\n  function feed(uint256 tokenId) public {\r\n    Pet storage pet = _tokenDetails[tokenId];\r\n    require(pet.lastMeal + pet.endurance > block.timestamp);\r\n    pet.lastMeal = block.timestamp;\r\n  }\r\n\r\n  function getAllTokensForUser(address user) public view returns(uint256[] memory) {\r\n    uint256 tokenCount = balanceOf(user);\r\n    if(tokenCount == 0) {\r\n      return new uint256[](0);\r\n    }\r\n    else{\r\n      uint256[] memory result = new uint256[](tokenCount);\r\n      // how many tokens in total?\r\n      uint256 totalPets = nextId;\r\n      uint256 resultIndex = 0;\r\n      uint256 i;\r\n      for(i = 0; i < totalPets; i++) {\r\n        //check\r\n        if(ownerOf(i) == user) {\r\n          result[resultIndex] = i;\r\n          resultIndex ++;\r\n        }\r\n      }\r\n      return result;\r\n    }\r\n\r\n  }\r\n\r\n\r\n  function _beforeTokenTransfer(address from, address to, uint256 tokenId) internal virtual override {\r\n      Pet storage pet = _tokenDetails[tokenId];\r\n      require(pet.lastMeal + pet.endurance > block.timestamp); // pet is still alive\r\n    }\r\n\r\n}",
  "sourcePath": "C:/Users/benX/Documents/ethereum_course_advanced/NFT_GAMES_BL/contracts/token.sol",
  "compiler": {
    "name": "solc",
    "version": "0.8.6+commit.11564f7e.Emscripten.clang"
  },
  "schemaVersion": "3.4.1",
  "updatedAt": "2021-07-26T21:21:59.105Z",
  "networkType": "ethereum",
  "devdoc": {
    "kind": "dev",
    "methods": {
      "approve(address,uint256)": {
        "details": "See {IERC721-approve}."
      },
      "balanceOf(address)": {
        "details": "See {IERC721-balanceOf}."
      },
      "getApproved(uint256)": {
        "details": "See {IERC721-getApproved}."
      },
      "isApprovedForAll(address,address)": {
        "details": "See {IERC721-isApprovedForAll}."
      },
      "name()": {
        "details": "See {IERC721Metadata-name}."
      },
      "owner()": {
        "details": "Returns the address of the current owner."
      },
      "ownerOf(uint256)": {
        "details": "See {IERC721-ownerOf}."
      },
      "renounceOwnership()": {
        "details": "Leaves the contract without owner. It will not be possible to call `onlyOwner` functions anymore. Can only be called by the current owner. NOTE: Renouncing ownership will leave the contract without an owner, thereby removing any functionality that is only available to the owner."
      },
      "safeTransferFrom(address,address,uint256)": {
        "details": "See {IERC721-safeTransferFrom}."
      },
      "safeTransferFrom(address,address,uint256,bytes)": {
        "details": "See {IERC721-safeTransferFrom}."
      },
      "setApprovalForAll(address,bool)": {
        "details": "See {IERC721-setApprovalForAll}."
      },
      "supportsInterface(bytes4)": {
        "details": "See {IERC165-supportsInterface}."
      },
      "symbol()": {
        "details": "See {IERC721Metadata-symbol}."
      },
      "tokenURI(uint256)": {
        "details": "See {IERC721Metadata-tokenURI}."
      },
      "transferFrom(address,address,uint256)": {
        "details": "See {IERC721-transferFrom}."
      },
      "transferOwnership(address)": {
        "details": "Transfers ownership of the contract to a new account (`newOwner`). Can only be called by the current owner."
      }
    },
    "version": 1
  },
  "userdoc": {
    "kind": "user",
    "methods": {},
    "version": 1
  }
}