{
  "contractName": "Token",
  "abi": [
    {
      "inputs": [
        {
          "internalType": "string",
          "name": "name",
          "type": "string"
        },
        {
          "internalType": "string",
          "name": "symbol",
          "type": "string"
        }
      ],
      "stateMutability": "nonpayable",
      "type": "constructor"
    },
    {
      "anonymous": false,
      "inputs": [
        {
          "indexed": true,
          "internalType": "address",
          "name": "owner",
          "type": "address"
        },
        {
          "indexed": true,
          "internalType": "address",
          "name": "approved",
          "type": "address"
        },
        {
          "indexed": true,
          "internalType": "uint256",
          "name": "tokenId",
          "type": "uint256"
        }
      ],
      "name": "Approval",
      "type": "event"
    },
    {
      "anonymous": false,
      "inputs": [
        {
          "indexed": true,
          "internalType": "address",
          "name": "owner",
          "type": "address"
        },
        {
          "indexed": true,
          "internalType": "address",
          "name": "operator",
          "type": "address"
        },
        {
          "indexed": false,
          "internalType": "bool",
          "name": "approved",
          "type": "bool"
        }
      ],
      "name": "ApprovalForAll",
      "type": "event"
    },
    {
      "anonymous": false,
      "inputs": [
        {
          "indexed": true,
          "internalType": "address",
          "name": "previousOwner",
          "type": "address"
        },
        {
          "indexed": true,
          "internalType": "address",
          "name": "newOwner",
          "type": "address"
        }
      ],
      "name": "OwnershipTransferred",
      "type": "event"
    },
    {
      "anonymous": false,
      "inputs": [
        {
          "indexed": true,
          "internalType": "address",
          "name": "from",
          "type": "address"
        },
        {
          "indexed": true,
          "internalType": "address",
          "name": "to",
          "type": "address"
        },
        {
          "indexed": true,
          "internalType": "uint256",
          "name": "tokenId",
          "type": "uint256"
        }
      ],
      "name": "Transfer",
      "type": "event"
    },
    {
      "inputs": [
        {
          "internalType": "address",
          "name": "to",
          "type": "address"
        },
        {
          "internalType": "uint256",
          "name": "tokenId",
          "type": "uint256"
        }
      ],
      "name": "approve",
      "outputs": [],
      "stateMutability": "nonpayable",
      "type": "function"
    },
    {
      "inputs": [
        {
          "internalType": "address",
          "name": "owner",
          "type": "address"
        }
      ],
      "name": "balanceOf",
      "outputs": [
        {
          "internalType": "uint256",
          "name": "",
          "type": "uint256"
        }
      ],
      "stateMutability": "view",
      "type": "function"
    },
    {
      "inputs": [
        {
          "internalType": "uint256",
          "name": "tokenId",
          "type": "uint256"
        }
      ],
      "name": "getApproved",
      "outputs": [
        {
          "internalType": "address",
          "name": "",
          "type": "address"
        }
      ],
      "stateMutability": "view",
      "type": "function"
    },
    {
      "inputs": [
        {
          "internalType": "address",
          "name": "owner",
          "type": "address"
        },
        {
          "internalType": "address",
          "name": "operator",
          "type": "address"
        }
      ],
      "name": "isApprovedForAll",
      "outputs": [
        {
          "internalType": "bool",
          "name": "",
          "type": "bool"
        }
      ],
      "stateMutability": "view",
      "type": "function"
    },
    {
      "inputs": [],
      "name": "name",
      "outputs": [
        {
          "internalType": "string",
          "name": "",
          "type": "string"
        }
      ],
      "stateMutability": "view",
      "type": "function"
    },
    {
      "inputs": [],
      "name": "owner",
      "outputs": [
        {
          "internalType": "address",
          "name": "",
          "type": "address"
        }
      ],
      "stateMutability": "view",
      "type": "function"
    },
    {
      "inputs": [
        {
          "internalType": "uint256",
          "name": "tokenId",
          "type": "uint256"
        }
      ],
      "name": "ownerOf",
      "outputs": [
        {
          "internalType": "address",
          "name": "",
          "type": "address"
        }
      ],
      "stateMutability": "view",
      "type": "function"
    },
    {
      "inputs": [],
      "name": "renounceOwnership",
      "outputs": [],
      "stateMutability": "nonpayable",
      "type": "function"
    },
    {
      "inputs": [
        {
          "internalType": "address",
          "name": "from",
          "type": "address"
        },
        {
          "internalType": "address",
          "name": "to",
          "type": "address"
        },
        {
          "internalType": "uint256",
          "name": "tokenId",
          "type": "uint256"
        }
      ],
      "name": "safeTransferFrom",
      "outputs": [],
      "stateMutability": "nonpayable",
      "type": "function"
    },
    {
      "inputs": [
        {
          "internalType": "address",
          "name": "from",
          "type": "address"
        },
        {
          "internalType": "address",
          "name": "to",
          "type": "address"
        },
        {
          "internalType": "uint256",
          "name": "tokenId",
          "type": "uint256"
        },
        {
          "internalType": "bytes",
          "name": "_data",
          "type": "bytes"
        }
      ],
      "name": "safeTransferFrom",
      "outputs": [],
      "stateMutability": "nonpayable",
      "type": "function"
    },
    {
      "inputs": [
        {
          "internalType": "address",
          "name": "operator",
          "type": "address"
        },
        {
          "internalType": "bool",
          "name": "approved",
          "type": "bool"
        }
      ],
      "name": "setApprovalForAll",
      "outputs": [],
      "stateMutability": "nonpayable",
      "type": "function"
    },
    {
      "inputs": [
        {
          "internalType": "bytes4",
          "name": "interfaceId",
          "type": "bytes4"
        }
      ],
      "name": "supportsInterface",
      "outputs": [
        {
          "internalType": "bool",
          "name": "",
          "type": "bool"
        }
      ],
      "stateMutability": "view",
      "type": "function"
    },
    {
      "inputs": [],
      "name": "symbol",
      "outputs": [
        {
          "internalType": "string",
          "name": "",
          "type": "string"
        }
      ],
      "stateMutability": "view",
      "type": "function"
    },
    {
      "inputs": [
        {
          "internalType": "uint256",
          "name": "tokenId",
          "type": "uint256"
        }
      ],
      "name": "tokenURI",
      "outputs": [
        {
          "internalType": "string",
          "name": "",
          "type": "string"
        }
      ],
      "stateMutability": "view",
      "type": "function"
    },
    {
      "inputs": [
        {
          "internalType": "address",
          "name": "from",
          "type": "address"
        },
        {
          "internalType": "address",
          "name": "to",
          "type": "address"
        },
        {
          "internalType": "uint256",
          "name": "tokenId",
          "type": "uint256"
        }
      ],
      "name": "transferFrom",
      "outputs": [],
      "stateMutability": "nonpayable",
      "type": "function"
    },
    {
      "inputs": [
        {
          "internalType": "address",
          "name": "newOwner",
          "type": "address"
        }
      ],
      "name": "transferOwnership",
      "outputs": [],
      "stateMutability": "nonpayable",
      "type": "function"
    },
    {
      "inputs": [
        {
          "internalType": "uint8",
          "name": "damage",
          "type": "uint8"
        },
        {
          "internalType": "uint8",
          "name": "magic",
          "type": "uint8"
        },
        {
          "internalType": "uint8",
          "name": "endurance",
          "type": "uint8"
        }
      ],
      "name": "mint",
      "outputs": [],
      "stateMutability": "nonpayable",
      "type": "function"
    },
    {
      "inputs": [
        {
          "internalType": "uint256",
          "name": "tokeId",
          "type": "uint256"
        }
      ],
      "name": "feed",
      "outputs": [],
      "stateMutability": "nonpayable",
      "type": "function"
    }
  ],
  "bytecode": "0x608060405260006007553480156200001657600080fd5b50604051620032123803806200321283398181016040528101906200003c919062000296565b818181600090805190602001906200005692919062000168565b5080600190805190602001906200006f92919062000168565b50505062000092620000866200009a60201b60201c565b620000a260201b60201c565b50506200049f565b600033905090565b6000600660009054906101000a900473ffffffffffffffffffffffffffffffffffffffff16905081600660006101000a81548173ffffffffffffffffffffffffffffffffffffffff021916908373ffffffffffffffffffffffffffffffffffffffff1602179055508173ffffffffffffffffffffffffffffffffffffffff168173ffffffffffffffffffffffffffffffffffffffff167f8be0079c531659141344cd1fd0a4f28419497f9722a3daafe3b4186f6b6457e060405160405180910390a35050565b8280546200017690620003b0565b90600052602060002090601f0160209004810192826200019a5760008555620001e6565b82601f10620001b557805160ff1916838001178555620001e6565b82800160010185558215620001e6579182015b82811115620001e5578251825591602001919060010190620001c8565b5b509050620001f59190620001f9565b5090565b5b8082111562000214576000816000905550600101620001fa565b5090565b60006200022f620002298462000344565b6200031b565b9050828152602081018484840111156200024e576200024d6200047f565b5b6200025b8482856200037a565b509392505050565b600082601f8301126200027b576200027a6200047a565b5b81516200028d84826020860162000218565b91505092915050565b60008060408385031215620002b057620002af62000489565b5b600083015167ffffffffffffffff811115620002d157620002d062000484565b5b620002df8582860162000263565b925050602083015167ffffffffffffffff81111562000303576200030262000484565b5b620003118582860162000263565b9150509250929050565b6000620003276200033a565b9050620003358282620003e6565b919050565b6000604051905090565b600067ffffffffffffffff8211156200036257620003616200044b565b5b6200036d826200048e565b9050602081019050919050565b60005b838110156200039a5780820151818401526020810190506200037d565b83811115620003aa576000848401525b50505050565b60006002820490506001821680620003c957607f821691505b60208210811415620003e057620003df6200041c565b5b50919050565b620003f1826200048e565b810181811067ffffffffffffffff821117156200041357620004126200044b565b5b80604052505050565b7f4e487b7100000000000000000000000000000000000000000000000000000000600052602260045260246000fd5b7f4e487b7100000000000000000000000000000000000000000000000000000000600052604160045260246000fd5b600080fd5b600080fd5b600080fd5b600080fd5b6000601f19601f8301169050919050565b612d6380620004af6000396000f3fe608060405234801561001057600080fd5b50600436106101165760003560e01c80638da5cb5b116100a2578063c87b56dd11610071578063c87b56dd146102cb578063e6f12af9146102fb578063e985e9c514610317578063f2fde38b14610347578063f59dfdfb1461036357610116565b80638da5cb5b1461025757806395d89b4114610275578063a22cb46514610293578063b88d4fde146102af57610116565b806323b872dd116100e957806323b872dd146101b557806342842e0e146101d15780636352211e146101ed57806370a082311461021d578063715018a61461024d57610116565b806301ffc9a71461011b57806306fdde031461014b578063081812fc14610169578063095ea7b314610199575b600080fd5b61013560048036038101906101309190611da1565b61037f565b6040516101429190612206565b60405180910390f35b610153610461565b6040516101609190612221565b60405180910390f35b610183600480360381019061017e9190611dfb565b6104f3565b604051610190919061219f565b60405180910390f35b6101b360048036038101906101ae9190611d61565b610578565b005b6101cf60048036038101906101ca9190611c4b565b610690565b005b6101eb60048036038101906101e69190611c4b565b6106f0565b005b61020760048036038101906102029190611dfb565b610710565b604051610214919061219f565b60405180910390f35b61023760048036038101906102329190611bde565b6107c2565b6040516102449190612443565b60405180910390f35b61025561087a565b005b61025f610902565b60405161026c919061219f565b60405180910390f35b61027d61092c565b60405161028a9190612221565b60405180910390f35b6102ad60048036038101906102a89190611d21565b6109be565b005b6102c960048036038101906102c49190611c9e565b610b3f565b005b6102e560048036038101906102e09190611dfb565b610ba1565b6040516102f29190612221565b60405180910390f35b61031560048036038101906103109190611e28565b610c48565b005b610331600480360381019061032c9190611c0b565b610d85565b60405161033e9190612206565b60405180910390f35b610361600480360381019061035c9190611bde565b610e19565b005b61037d60048036038101906103789190611dfb565b610f11565b005b60007f80ac58cd000000000000000000000000000000000000000000000000000000007bffffffffffffffffffffffffffffffffffffffffffffffffffffffff1916827bffffffffffffffffffffffffffffffffffffffffffffffffffffffff1916148061044a57507f5b5e139f000000000000000000000000000000000000000000000000000000007bffffffffffffffffffffffffffffffffffffffffffffffffffffffff1916827bffffffffffffffffffffffffffffffffffffffffffffffffffffffff1916145b8061045a575061045982610f56565b5b9050919050565b60606000805461047090612675565b80601f016020809104026020016040519081016040528092919081815260200182805461049c90612675565b80156104e95780601f106104be576101008083540402835291602001916104e9565b820191906000526020600020905b8154815290600101906020018083116104cc57829003601f168201915b5050505050905090565b60006104fe82610fc0565b61053d576040517f08c379a000000000000000000000000000000000000000000000000000000000815260040161053490612383565b60405180910390fd5b6004600083815260200190815260200160002060009054906101000a900473ffffffffffffffffffffffffffffffffffffffff169050919050565b600061058382610710565b90508073ffffffffffffffffffffffffffffffffffffffff168373ffffffffffffffffffffffffffffffffffffffff1614156105f4576040517f08c379a00000000000000000000000000000000000000000000000000000000081526004016105eb90612403565b60405180910390fd5b8073ffffffffffffffffffffffffffffffffffffffff1661061361102c565b73ffffffffffffffffffffffffffffffffffffffff16148061064257506106418161063c61102c565b610d85565b5b610681576040517f08c379a000000000000000000000000000000000000000000000000000000000815260040161067890612303565b60405180910390fd5b61068b8383611034565b505050565b6106a161069b61102c565b826110ed565b6106e0576040517f08c379a00000000000000000000000000000000000000000000000000000000081526004016106d790612423565b60405180910390fd5b6106eb8383836111cb565b505050565b61070b83838360405180602001604052806000815250610b3f565b505050565b6000806002600084815260200190815260200160002060009054906101000a900473ffffffffffffffffffffffffffffffffffffffff169050600073ffffffffffffffffffffffffffffffffffffffff168173ffffffffffffffffffffffffffffffffffffffff1614156107b9576040517f08c379a00000000000000000000000000000000000000000000000000000000081526004016107b090612343565b60405180910390fd5b80915050919050565b60008073ffffffffffffffffffffffffffffffffffffffff168273ffffffffffffffffffffffffffffffffffffffff161415610833576040517f08c379a000000000000000000000000000000000000000000000000000000000815260040161082a90612323565b60405180910390fd5b600360008373ffffffffffffffffffffffffffffffffffffffff1673ffffffffffffffffffffffffffffffffffffffff168152602001908152602001600020549050919050565b61088261102c565b73ffffffffffffffffffffffffffffffffffffffff166108a0610902565b73ffffffffffffffffffffffffffffffffffffffff16146108f6576040517f08c379a00000000000000000000000000000000000000000000000000000000081526004016108ed906123a3565b60405180910390fd5b6109006000611427565b565b6000600660009054906101000a900473ffffffffffffffffffffffffffffffffffffffff16905090565b60606001805461093b90612675565b80601f016020809104026020016040519081016040528092919081815260200182805461096790612675565b80156109b45780601f10610989576101008083540402835291602001916109b4565b820191906000526020600020905b81548152906001019060200180831161099757829003601f168201915b5050505050905090565b6109c661102c565b73ffffffffffffffffffffffffffffffffffffffff168273ffffffffffffffffffffffffffffffffffffffff161415610a34576040517f08c379a0000000000000000000000000000000000000000000000000000000008152600401610a2b906122c3565b60405180910390fd5b8060056000610a4161102c565b73ffffffffffffffffffffffffffffffffffffffff1673ffffffffffffffffffffffffffffffffffffffff16815260200190815260200160002060008473ffffffffffffffffffffffffffffffffffffffff1673ffffffffffffffffffffffffffffffffffffffff16815260200190815260200160002060006101000a81548160ff0219169083151502179055508173ffffffffffffffffffffffffffffffffffffffff16610aee61102c565b73ffffffffffffffffffffffffffffffffffffffff167f17307eab39ab6107e8899845ad3d59bd9653f200f220920489ca2b5937696c3183604051610b339190612206565b60405180910390a35050565b610b50610b4a61102c565b836110ed565b610b8f576040517f08c379a0000000000000000000000000000000000000000000000000000000008152600401610b8690612423565b60405180910390fd5b610b9b848484846114ed565b50505050565b6060610bac82610fc0565b610beb576040517f08c379a0000000000000000000000000000000000000000000000000000000008152600401610be2906123e3565b60405180910390fd5b6000610bf5611549565b90506000815111610c155760405180602001604052806000815250610c40565b80610c1f84611560565b604051602001610c3092919061217b565b6040516020818303038152906040525b915050919050565b610c5061102c565b73ffffffffffffffffffffffffffffffffffffffff16610c6e610902565b73ffffffffffffffffffffffffffffffffffffffff1614610cc4576040517f08c379a0000000000000000000000000000000000000000000000000000000008152600401610cbb906123a3565b60405180910390fd5b60405180608001604052808460ff1681526020018360ff1681526020014281526020018260ff1681525060086000600754815260200190815260200160002060008201518160000160006101000a81548160ff021916908360ff16021790555060208201518160000160016101000a81548160ff021916908360ff1602179055506040820151816001015560608201518160020155905050610d68336007546116c1565b60076000815480929190610d7b906126d8565b9190505550505050565b6000600560008473ffffffffffffffffffffffffffffffffffffffff1673ffffffffffffffffffffffffffffffffffffffff16815260200190815260200160002060008373ffffffffffffffffffffffffffffffffffffffff1673ffffffffffffffffffffffffffffffffffffffff16815260200190815260200160002060009054906101000a900460ff16905092915050565b610e2161102c565b73ffffffffffffffffffffffffffffffffffffffff16610e3f610902565b73ffffffffffffffffffffffffffffffffffffffff1614610e95576040517f08c379a0000000000000000000000000000000000000000000000000000000008152600401610e8c906123a3565b60405180910390fd5b600073ffffffffffffffffffffffffffffffffffffffff168173ffffffffffffffffffffffffffffffffffffffff161415610f05576040517f08c379a0000000000000000000000000000000000000000000000000000000008152600401610efc90612263565b60405180910390fd5b610f0e81611427565b50565b600060086000600754815260200190815260200160002090504281600101548260020154610f3f91906124f7565b11610f4957600080fd5b4281600101819055505050565b60007f01ffc9a7000000000000000000000000000000000000000000000000000000007bffffffffffffffffffffffffffffffffffffffffffffffffffffffff1916827bffffffffffffffffffffffffffffffffffffffffffffffffffffffff1916149050919050565b60008073ffffffffffffffffffffffffffffffffffffffff166002600084815260200190815260200160002060009054906101000a900473ffffffffffffffffffffffffffffffffffffffff1673ffffffffffffffffffffffffffffffffffffffff1614159050919050565b600033905090565b816004600083815260200190815260200160002060006101000a81548173ffffffffffffffffffffffffffffffffffffffff021916908373ffffffffffffffffffffffffffffffffffffffff160217905550808273ffffffffffffffffffffffffffffffffffffffff166110a783610710565b73ffffffffffffffffffffffffffffffffffffffff167f8c5be1e5ebec7d5bd14f71427d1e84f3dd0314c0f7b2291e5b200ac8c7c3b92560405160405180910390a45050565b60006110f882610fc0565b611137576040517f08c379a000000000000000000000000000000000000000000000000000000000815260040161112e906122e3565b60405180910390fd5b600061114283610710565b90508073ffffffffffffffffffffffffffffffffffffffff168473ffffffffffffffffffffffffffffffffffffffff1614806111b157508373ffffffffffffffffffffffffffffffffffffffff16611199846104f3565b73ffffffffffffffffffffffffffffffffffffffff16145b806111c257506111c18185610d85565b5b91505092915050565b8273ffffffffffffffffffffffffffffffffffffffff166111eb82610710565b73ffffffffffffffffffffffffffffffffffffffff1614611241576040517f08c379a0000000000000000000000000000000000000000000000000000000008152600401611238906123c3565b60405180910390fd5b600073ffffffffffffffffffffffffffffffffffffffff168273ffffffffffffffffffffffffffffffffffffffff1614156112b1576040517f08c379a00000000000000000000000000000000000000000000000000000000081526004016112a8906122a3565b60405180910390fd5b6112bc8383836116df565b6112c7600082611034565b6001600360008573ffffffffffffffffffffffffffffffffffffffff1673ffffffffffffffffffffffffffffffffffffffff1681526020019081526020016000206000828254611317919061257e565b925050819055506001600360008473ffffffffffffffffffffffffffffffffffffffff1673ffffffffffffffffffffffffffffffffffffffff168152602001908152602001600020600082825461136e91906124f7565b92505081905550816002600083815260200190815260200160002060006101000a81548173ffffffffffffffffffffffffffffffffffffffff021916908373ffffffffffffffffffffffffffffffffffffffff160217905550808273ffffffffffffffffffffffffffffffffffffffff168473ffffffffffffffffffffffffffffffffffffffff167fddf252ad1be2c89b69c2b068fc378daa952ba7f163c4a11628f55a4df523b3ef60405160405180910390a4505050565b6000600660009054906101000a900473ffffffffffffffffffffffffffffffffffffffff16905081600660006101000a81548173ffffffffffffffffffffffffffffffffffffffff021916908373ffffffffffffffffffffffffffffffffffffffff1602179055508173ffffffffffffffffffffffffffffffffffffffff168173ffffffffffffffffffffffffffffffffffffffff167f8be0079c531659141344cd1fd0a4f28419497f9722a3daafe3b4186f6b6457e060405160405180910390a35050565b6114f88484846111cb565b6115048484848461171d565b611543576040517f08c379a000000000000000000000000000000000000000000000000000000000815260040161153a90612243565b60405180910390fd5b50505050565b606060405180602001604052806000815250905090565b606060008214156115a8576040518060400160405280600181526020017f300000000000000000000000000000000000000000000000000000000000000081525090506116bc565b600082905060005b600082146115da5780806115c3906126d8565b915050600a826115d3919061254d565b91506115b0565b60008167ffffffffffffffff8111156115f6576115f561280e565b5b6040519080825280601f01601f1916602001820160405280156116285781602001600182028036833780820191505090505b5090505b600085146116b557600182611641919061257e565b9150600a856116509190612721565b603061165c91906124f7565b60f81b818381518110611672576116716127df565b5b60200101907effffffffffffffffffffffffffffffffffffffffffffffffffffffffffffff1916908160001a905350600a856116ae919061254d565b945061162c565b8093505050505b919050565b6116db8282604051806020016040528060008152506118b4565b5050565b60006008600060075481526020019081526020016000209050428160010154826002015461170d91906124f7565b1161171757600080fd5b50505050565b600061173e8473ffffffffffffffffffffffffffffffffffffffff1661190f565b156118a7578373ffffffffffffffffffffffffffffffffffffffff1663150b7a0261176761102c565b8786866040518563ffffffff1660e01b815260040161178994939291906121ba565b602060405180830381600087803b1580156117a357600080fd5b505af19250505080156117d457506040513d601f19601f820116820180604052508101906117d19190611dce565b60015b611857573d8060008114611804576040519150601f19603f3d011682016040523d82523d6000602084013e611809565b606091505b5060008151141561184f576040517f08c379a000000000000000000000000000000000000000000000000000000000815260040161184690612243565b60405180910390fd5b805181602001fd5b63150b7a0260e01b7bffffffffffffffffffffffffffffffffffffffffffffffffffffffff1916817bffffffffffffffffffffffffffffffffffffffffffffffffffffffff1916149150506118ac565b600190505b949350505050565b6118be8383611922565b6118cb600084848461171d565b61190a576040517f08c379a000000000000000000000000000000000000000000000000000000000815260040161190190612243565b60405180910390fd5b505050565b600080823b905060008111915050919050565b600073ffffffffffffffffffffffffffffffffffffffff168273ffffffffffffffffffffffffffffffffffffffff161415611992576040517f08c379a000000000000000000000000000000000000000000000000000000000815260040161198990612363565b60405180910390fd5b61199b81610fc0565b156119db576040517f08c379a00000000000000000000000000000000000000000000000000000000081526004016119d290612283565b60405180910390fd5b6119e7600083836116df565b6001600360008473ffffffffffffffffffffffffffffffffffffffff1673ffffffffffffffffffffffffffffffffffffffff1681526020019081526020016000206000828254611a3791906124f7565b92505081905550816002600083815260200190815260200160002060006101000a81548173ffffffffffffffffffffffffffffffffffffffff021916908373ffffffffffffffffffffffffffffffffffffffff160217905550808273ffffffffffffffffffffffffffffffffffffffff16600073ffffffffffffffffffffffffffffffffffffffff167fddf252ad1be2c89b69c2b068fc378daa952ba7f163c4a11628f55a4df523b3ef60405160405180910390a45050565b6000611b03611afe84612483565b61245e565b905082815260208101848484011115611b1f57611b1e612842565b5b611b2a848285612633565b509392505050565b600081359050611b4181612cba565b92915050565b600081359050611b5681612cd1565b92915050565b600081359050611b6b81612ce8565b92915050565b600081519050611b8081612ce8565b92915050565b600082601f830112611b9b57611b9a61283d565b5b8135611bab848260208601611af0565b91505092915050565b600081359050611bc381612cff565b92915050565b600081359050611bd881612d16565b92915050565b600060208284031215611bf457611bf361284c565b5b6000611c0284828501611b32565b91505092915050565b60008060408385031215611c2257611c2161284c565b5b6000611c3085828601611b32565b9250506020611c4185828601611b32565b9150509250929050565b600080600060608486031215611c6457611c6361284c565b5b6000611c7286828701611b32565b9350506020611c8386828701611b32565b9250506040611c9486828701611bb4565b9150509250925092565b60008060008060808587031215611cb857611cb761284c565b5b6000611cc687828801611b32565b9450506020611cd787828801611b32565b9350506040611ce887828801611bb4565b925050606085013567ffffffffffffffff811115611d0957611d08612847565b5b611d1587828801611b86565b91505092959194509250565b60008060408385031215611d3857611d3761284c565b5b6000611d4685828601611b32565b9250506020611d5785828601611b47565b9150509250929050565b60008060408385031215611d7857611d7761284c565b5b6000611d8685828601611b32565b9250506020611d9785828601611bb4565b9150509250929050565b600060208284031215611db757611db661284c565b5b6000611dc584828501611b5c565b91505092915050565b600060208284031215611de457611de361284c565b5b6000611df284828501611b71565b91505092915050565b600060208284031215611e1157611e1061284c565b5b6000611e1f84828501611bb4565b91505092915050565b600080600060608486031215611e4157611e4061284c565b5b6000611e4f86828701611bc9565b9350506020611e6086828701611bc9565b9250506040611e7186828701611bc9565b9150509250925092565b611e84816125b2565b82525050565b611e93816125c4565b82525050565b6000611ea4826124b4565b611eae81856124ca565b9350611ebe818560208601612642565b611ec781612851565b840191505092915050565b6000611edd826124bf565b611ee781856124db565b9350611ef7818560208601612642565b611f0081612851565b840191505092915050565b6000611f16826124bf565b611f2081856124ec565b9350611f30818560208601612642565b80840191505092915050565b6000611f496032836124db565b9150611f5482612862565b604082019050919050565b6000611f6c6026836124db565b9150611f77826128b1565b604082019050919050565b6000611f8f601c836124db565b9150611f9a82612900565b602082019050919050565b6000611fb26024836124db565b9150611fbd82612929565b604082019050919050565b6000611fd56019836124db565b9150611fe082612978565b602082019050919050565b6000611ff8602c836124db565b9150612003826129a1565b604082019050919050565b600061201b6038836124db565b9150612026826129f0565b604082019050919050565b600061203e602a836124db565b915061204982612a3f565b604082019050919050565b60006120616029836124db565b915061206c82612a8e565b604082019050919050565b60006120846020836124db565b915061208f82612add565b602082019050919050565b60006120a7602c836124db565b91506120b282612b06565b604082019050919050565b60006120ca6020836124db565b91506120d582612b55565b602082019050919050565b60006120ed6029836124db565b91506120f882612b7e565b604082019050919050565b6000612110602f836124db565b915061211b82612bcd565b604082019050919050565b60006121336021836124db565b915061213e82612c1c565b604082019050919050565b60006121566031836124db565b915061216182612c6b565b604082019050919050565b6121758161261c565b82525050565b60006121878285611f0b565b91506121938284611f0b565b91508190509392505050565b60006020820190506121b46000830184611e7b565b92915050565b60006080820190506121cf6000830187611e7b565b6121dc6020830186611e7b565b6121e9604083018561216c565b81810360608301526121fb8184611e99565b905095945050505050565b600060208201905061221b6000830184611e8a565b92915050565b6000602082019050818103600083015261223b8184611ed2565b905092915050565b6000602082019050818103600083015261225c81611f3c565b9050919050565b6000602082019050818103600083015261227c81611f5f565b9050919050565b6000602082019050818103600083015261229c81611f82565b9050919050565b600060208201905081810360008301526122bc81611fa5565b9050919050565b600060208201905081810360008301526122dc81611fc8565b9050919050565b600060208201905081810360008301526122fc81611feb565b9050919050565b6000602082019050818103600083015261231c8161200e565b9050919050565b6000602082019050818103600083015261233c81612031565b9050919050565b6000602082019050818103600083015261235c81612054565b9050919050565b6000602082019050818103600083015261237c81612077565b9050919050565b6000602082019050818103600083015261239c8161209a565b9050919050565b600060208201905081810360008301526123bc816120bd565b9050919050565b600060208201905081810360008301526123dc816120e0565b9050919050565b600060208201905081810360008301526123fc81612103565b9050919050565b6000602082019050818103600083015261241c81612126565b9050919050565b6000602082019050818103600083015261243c81612149565b9050919050565b6000602082019050612458600083018461216c565b92915050565b6000612468612479565b905061247482826126a7565b919050565b6000604051905090565b600067ffffffffffffffff82111561249e5761249d61280e565b5b6124a782612851565b9050602081019050919050565b600081519050919050565b600081519050919050565b600082825260208201905092915050565b600082825260208201905092915050565b600081905092915050565b60006125028261261c565b915061250d8361261c565b9250827fffffffffffffffffffffffffffffffffffffffffffffffffffffffffffffffff0382111561254257612541612752565b5b828201905092915050565b60006125588261261c565b91506125638361261c565b92508261257357612572612781565b5b828204905092915050565b60006125898261261c565b91506125948361261c565b9250828210156125a7576125a6612752565b5b828203905092915050565b60006125bd826125fc565b9050919050565b60008115159050919050565b60007fffffffff0000000000000000000000000000000000000000000000000000000082169050919050565b600073ffffffffffffffffffffffffffffffffffffffff82169050919050565b6000819050919050565b600060ff82169050919050565b82818337600083830152505050565b60005b83811015612660578082015181840152602081019050612645565b8381111561266f576000848401525b50505050565b6000600282049050600182168061268d57607f821691505b602082108114156126a1576126a06127b0565b5b50919050565b6126b082612851565b810181811067ffffffffffffffff821117156126cf576126ce61280e565b5b80604052505050565b60006126e38261261c565b91507fffffffffffffffffffffffffffffffffffffffffffffffffffffffffffffffff82141561271657612715612752565b5b600182019050919050565b600061272c8261261c565b91506127378361261c565b92508261274757612746612781565b5b828206905092915050565b7f4e487b7100000000000000000000000000000000000000000000000000000000600052601160045260246000fd5b7f4e487b7100000000000000000000000000000000000000000000000000000000600052601260045260246000fd5b7f4e487b7100000000000000000000000000000000000000000000000000000000600052602260045260246000fd5b7f4e487b7100000000000000000000000000000000000000000000000000000000600052603260045260246000fd5b7f4e487b7100000000000000000000000000000000000000000000000000000000600052604160045260246000fd5b600080fd5b600080fd5b600080fd5b600080fd5b6000601f19601f8301169050919050565b7f4552433732313a207472616e7366657220746f206e6f6e20455243373231526560008201527f63656976657220696d706c656d656e7465720000000000000000000000000000602082015250565b7f4f776e61626c653a206e6577206f776e657220697320746865207a65726f206160008201527f6464726573730000000000000000000000000000000000000000000000000000602082015250565b7f4552433732313a20746f6b656e20616c7265616479206d696e74656400000000600082015250565b7f4552433732313a207472616e7366657220746f20746865207a65726f2061646460008201527f7265737300000000000000000000000000000000000000000000000000000000602082015250565b7f4552433732313a20617070726f766520746f2063616c6c657200000000000000600082015250565b7f4552433732313a206f70657261746f7220717565727920666f72206e6f6e657860008201527f697374656e7420746f6b656e0000000000000000000000000000000000000000602082015250565b7f4552433732313a20617070726f76652063616c6c6572206973206e6f74206f7760008201527f6e6572206e6f7220617070726f76656420666f7220616c6c0000000000000000602082015250565b7f4552433732313a2062616c616e636520717565727920666f7220746865207a6560008201527f726f206164647265737300000000000000000000000000000000000000000000602082015250565b7f4552433732313a206f776e657220717565727920666f72206e6f6e657869737460008201527f656e7420746f6b656e0000000000000000000000000000000000000000000000602082015250565b7f4552433732313a206d696e7420746f20746865207a65726f2061646472657373600082015250565b7f4552433732313a20617070726f76656420717565727920666f72206e6f6e657860008201527f697374656e7420746f6b656e0000000000000000000000000000000000000000602082015250565b7f4f776e61626c653a2063616c6c6572206973206e6f7420746865206f776e6572600082015250565b7f4552433732313a207472616e73666572206f6620746f6b656e2074686174206960008201527f73206e6f74206f776e0000000000000000000000000000000000000000000000602082015250565b7f4552433732314d657461646174613a2055524920717565727920666f72206e6f60008201527f6e6578697374656e7420746f6b656e0000000000000000000000000000000000602082015250565b7f4552433732313a20617070726f76616c20746f2063757272656e74206f776e6560008201527f7200000000000000000000000000000000000000000000000000000000000000602082015250565b7f4552433732313a207472616e736665722063616c6c6572206973206e6f74206f60008201527f776e6572206e6f7220617070726f766564000000000000000000000000000000602082015250565b612cc3816125b2565b8114612cce57600080fd5b50565b612cda816125c4565b8114612ce557600080fd5b50565b612cf1816125d0565b8114612cfc57600080fd5b50565b612d088161261c565b8114612d1357600080fd5b50565b612d1f81612626565b8114612d2a57600080fd5b5056fea2646970667358221220b9f759218b6270da55cb350424126f17b07d7b67c3bd6cefc4832fc36a3d36b864736f6c63430008060033",
  "immutableReferences": {},
  "source": "// SPDX-License-Identifier: MIT\r\n\r\npragma solidity ^0.8.0;\r\n\r\n// https://youtu.be/_VVqa7zWSxA\r\n// I BUILT NFT GAME IN 12 HOURS\r\n// with Fillip - Moralis Web3\r\n\r\nimport \"@openzeppelin/contracts/token/ERC721/ERC721.sol\";\r\nimport \"@openzeppelin/contracts/access/Ownable.sol\";\r\n\r\ncontract Token is ERC721, Ownable {\r\n\r\n  struct Pet {\r\n    uint8 damage; // 0-255\r\n    uint8 magic;\r\n    uint256 lastMeal;\r\n    uint256 endurance;\r\n  }\r\n\r\n  uint256 nextId = 0;\r\n\r\n  mapping(uint256 => Pet) private _tokenDetails;\r\n\r\n  constructor(string memory name, string memory symbol) ERC721(name, symbol) {\r\n\r\n  }\r\n\r\n  function mint(uint8 damage, uint8 magic, uint8 endurance) public onlyOwner {\r\n    _tokenDetails[nextId] = Pet(damage, magic, block.timestamp, endurance);\r\n    _safeMint(msg.sender, nextId);\r\n    nextId++;\r\n  }\r\n\r\n  function feed(uint256 tokeId) public {\r\n    Pet storage pet = _tokenDetails[nextId];\r\n    require(pet.endurance + pet.lastMeal > block.timestamp);\r\n    pet.lastMeal = block.timestamp;\r\n  }\r\n\r\n  function _beforeTokenTransfer(address from, address to, uint256 tokenId) internal virtual override {\r\n      Pet storage pet = _tokenDetails[nextId];\r\n      require(pet.endurance + pet.lastMeal > block.timestamp); // pet is still alive\r\n    }\r\n\r\n\r\n}",
  "sourcePath": "C:/Users/benX/Documents/ethereum_course_advanced/NFT_GAMES_BL/contracts/token.sol",
  "compiler": {
    "name": "solc",
    "version": "0.8.6+commit.11564f7e.Emscripten.clang"
  },
  "schemaVersion": "3.4.1",
  "updatedAt": "2021-07-21T23:00:34.664Z",
  "devdoc": {
    "kind": "dev",
    "methods": {
      "approve(address,uint256)": {
        "details": "See {IERC721-approve}."
      },
      "balanceOf(address)": {
        "details": "See {IERC721-balanceOf}."
      },
      "getApproved(uint256)": {
        "details": "See {IERC721-getApproved}."
      },
      "isApprovedForAll(address,address)": {
        "details": "See {IERC721-isApprovedForAll}."
      },
      "name()": {
        "details": "See {IERC721Metadata-name}."
      },
      "owner()": {
        "details": "Returns the address of the current owner."
      },
      "ownerOf(uint256)": {
        "details": "See {IERC721-ownerOf}."
      },
      "renounceOwnership()": {
        "details": "Leaves the contract without owner. It will not be possible to call `onlyOwner` functions anymore. Can only be called by the current owner. NOTE: Renouncing ownership will leave the contract without an owner, thereby removing any functionality that is only available to the owner."
      },
      "safeTransferFrom(address,address,uint256)": {
        "details": "See {IERC721-safeTransferFrom}."
      },
      "safeTransferFrom(address,address,uint256,bytes)": {
        "details": "See {IERC721-safeTransferFrom}."
      },
      "setApprovalForAll(address,bool)": {
        "details": "See {IERC721-setApprovalForAll}."
      },
      "supportsInterface(bytes4)": {
        "details": "See {IERC165-supportsInterface}."
      },
      "symbol()": {
        "details": "See {IERC721Metadata-symbol}."
      },
      "tokenURI(uint256)": {
        "details": "See {IERC721Metadata-tokenURI}."
      },
      "transferFrom(address,address,uint256)": {
        "details": "See {IERC721-transferFrom}."
      },
      "transferOwnership(address)": {
        "details": "Transfers ownership of the contract to a new account (`newOwner`). Can only be called by the current owner."
      }
    },
    "version": 1
  },
  "userdoc": {
    "kind": "user",
    "methods": {},
    "version": 1
  }
}